:100000000C94D0000C94F8000C94F8000C94F800B8
:100010000C94E9080C94F8000C94F8000C94F80087
:100020000C94F8000C94F8000C94F8000C94F80070
:100030000C94F8000C94F8000C94F8000C94F80060
:100040000C949F080C94F8000C946D080C944708CD
:100050000C94F8000C94F8000C94F8000C94F80040
:100060000C94F8000C94F80044656D436F6E0044E6
:10007000656D5665720044656D43666700436D6447
:1000800053696D00436D64456E7200436D64436651
:1000900067003C436D644366677C008B0084007D91
:1000A0000076006F0068003C4E6F7576656C6C657D
:1000B00020636F6E66696775726174696F6E204345
:1000C00048415247454D454E54204F4B20213E005C
:1000D0003C53696D756C6174696F6E20417272C3B7
:1000E000AA743E003C53696D756C6174696F6E2033
:1000F0004F4B3E00457272657572207472616E736B
:100100006D697373696F6E202D3E20003C436F6EE6
:100110006E6578696F6E204F6B3E00000000002412
:100120000027002A0000000000250028002B0050B6
:1001300072656D69C3A972652073617576656761C3
:1001400072646520646520636F6E666967757261AD
:1001500074696F6E0000000000230026002900046F
:10016000040404040404040202020202020303035E
:100170000303030102040810204080010204081058
:100180002001020408102000000008000201000005
:10019000030407000000000000000000B809150F6C
:1001A00011241FBECFEFD8E0DEBFCDBF11E0A0E02D
:1001B000B1E0E0E8F4E202C005900D92AC38B1077E
:1001C000D9F724E0ACE8B1E001C01D92A334B20736
:1001D000E1F710E0CFECD0E004C02197FE010E94CF
:1001E0003B10CE3CD107C9F70E94130A0C9433127E
:1001F0000C940000AF92BF92CF92DF92EF92FF92E9
:100200000F931F93CF93DF936C017B018B01040F3E
:10021000151FEB015E01AE18BF08C017D10759F0DA
:100220006991D601ED91FC910190F081E02DC6011C
:100230000995892B79F7C501DF91CF911F910F9116
:10024000FF90EF90DF90CF90BF90AF900895FC01AA
:10025000448155816081718188E493E00C94FA00B7
:10026000FC01538D448D252F30E0842F90E0821BBC
:10027000930B541710F0CF96089501970895FC0141
:10028000918D828D981761F0A28DAE0FBF2FB11D99
:100290005D968C91928D9F5F9F73928F90E00895F1
:1002A0008FEF9FEF0895FC01918D828D981731F0AB
:1002B000828DE80FF11D858D90E008958FEF9FEFFF
:1002C0000895FC01918D228D892F90E0805C9F4FD5
:1002D000821B91098F739927089588E493E00E9407
:1002E000610121E0892B09F420E0822F0895FC01AF
:1002F000A48DA80FB92FB11DA35ABF4F2C91848D87
:1003000090E001968F739927848FA689B7892C93E3
:10031000A089B1898C91837080648C93938D848D36
:10032000981306C00288F389E02D80818F7D808339
:100330000895EF92FF920F931F93CF93DF93EC01F9
:1003400081E0888F9B8D8C8D98131AC0E889F9897C
:10035000808185FF15C09FB7F894EE89FF8960837F
:10036000E889F98980818370806480839FBF81E000
:1003700090E0DF91CF911F910F91FF90EF90089542
:10038000F62E0B8D10E00F5F1F4F0F731127E02E1D
:100390008C8D8E110CC00FB607FCFACFE889F98955
:1003A000808185FFF5CFCE010E947701F1CFEB8DE3
:1003B000EC0FFD2FF11DE35AFF4FF0829FB7F89429
:1003C0000B8FEA89FB8980818062CFCF682F88E418
:1003D00093E00C9499010F931F93CF93DF938C01BB
:1003E000D0E0C0E0F801EC0FFD1F6491662341F0FE
:1003F00088E493E00E949901892B11F02196F2CFB5
:10040000CE01DF91CF911F910F910895CF93DF938C
:10041000EC01888D8823B9F0AA89BB89E889F9891C
:100420008C9185FD03C0808186FD0DC00FB607FC51
:10043000F7CF8C9185FFF2CF808185FFEDCFCE0184
:100440000E947701E9CFDF91CF910895833081F049
:1004500028F4813099F08230A9F008958730A9F00E
:100460008830C9F08430B1F4809180008F7D03C062
:10047000809180008F7780938000089584B58F7776
:1004800084BD089584B58F7DFBCF8091B0008F77B8
:100490008093B00008958091B0008F7DF9CF1F93B5
:1004A000CF93DF93282F30E0F901E957FE4F849175
:1004B000F901ED58FE4FD491F901E15AFE4FC49174
:1004C000CC23A9F0162F81110E942602EC2FF0E018
:1004D000EE0FFF1FEB5DFE4FA591B4918FB7F8941F
:1004E000EC91111108C0D095DE23DC938FBFDF9112
:1004F000CF911F910895DE2BF8CFCF93DF9390E03B
:10050000FC01ED58FE4F2491815A9E4FFC018491CD
:100510008823C9F090E0880F991FFC01E55EFE4F2B
:10052000A591B491FC01EB5DFE4FC591D491611191
:100530000DC09FB7F8948C91209582238C9388816D
:10054000282328839FBFDF91CF910895623051F413
:100550009FB7F8943C91822F809583238C93E881F8
:100560002E2BEFCF8FB7F894EC912E2B2C938FBFBF
:10057000EACF1F93CF93DF93182FEB0161E00E9426
:100580007D02209739F460E0812FDF91CF911F9198
:100590000C944F02CF3FD10511F461E0F5CFE12F6C
:1005A000F0E0E957FE4FE491E33031F140F4E130FF
:1005B000B1F0E230E1F0C038D1057CF7E4CFE730AC
:1005C00029F1E83059F1E430B1F780918000806280
:1005D00080938000D0938B00C0938A0004C084B5C0
:1005E000806884BDC7BDDF91CF911F91089584B508
:1005F000806284BDC8BDF7CF809180008068809301
:100600008000D0938900C0938800EDCF8091B00026
:1006100080688093B000C093B300E5CF8091B000B4
:1006200080628093B000C093B400DDCF8E508064B0
:1006300080937C0080917A00806480937A0080911E
:100640007A0086FDFCCF8091780090917900089522
:100650003FB7F8948091F8029091F902A091FA02C4
:10066000B091FB0226B5A89B05C02F3F19F001965B
:10067000A11DB11D3FBFBA2FA92F982F8827BC01FC
:10068000CD01620F711D811D911D42E0660F771F24
:10069000881F991F4A95D1F708958F929F92AF9224
:1006A000BF92CF92DF92EF92FF926B017C010E948A
:1006B00028034B015C01C114D104E104F104B9F039
:1006C0000E942803681979098A099B09683E7340CA
:1006D0008105910580F321E0C21AD108E108F108F3
:1006E00088EE880E83E0981EA11CB11CE4CFFF9019
:1006F000EF90DF90CF90BF90AF909F908F90089534
:10070000CF93DF93C6E2D1E060E089910E944F026F
:1007100081E0CE32D807C1F7DF91CF910895CF9312
:10072000DF93C6E2D1E061E089910E944F0264E666
:1007300070E080E090E00E944D0381E0CE32D80767
:1007400091F764E670E080E090E00E944D030E9423
:10075000800364E670E080E090E0DF91CF910C943C
:100760004D030F931F93E9E1F3E04681578182899E
:1007700090E0A5EEB3E08A01080F191F30E020E0F9
:100780001D960D931D932D933C935097481B590B29
:1007900070E060E019964D935D936D937C931C9788
:1007A0004285538570E060E055964D935D936D935F
:1007B0007C9358974085518570E060E051964D9349
:1007C0005D936D937C935497438950E070E060E0B3
:1007D0005D964D935D936D937C939097448950E023
:1007E00070E060E059964D935D936D937C935C97B8
:1007F00044855585A8E0B4E08C01040F151F30E056
:1008000020E01D960D931D932D933C935097481B0C
:10081000590B70E060E019964D935D936D937C9356
:100820001C974089518970E060E055964D935D9327
:100830006D937C9358974685578570E060E051969C
:100840004D935D936D937C935497458950E070E090
:1008500060E05D964D935D936D937C939097468990
:1008600050E070E060E059964D935D936D937C93FA
:100870005C971F910F910895CF93DF93EC0160E097
:1008800088810E944F0260E08A810E944F0260E0EE
:100890008C81DF91CF910C944F024F925F926F92B7
:1008A0007F928F929F92AF92BF92CF92DF92EF9200
:1008B000FF92CF93DF93EC01C984DA84EB84FC844C
:1008C0008D849E84AF84B888C416D506E606F706E4
:1008D000D8F4481559056A057B05B0F40E943C041C
:1008E00064E170E080E090E0DF91CF91FF90EF90C5
:1008F000DF90CF90BF90AF909F908F907F906F9040
:100900005F904F900C944D0384169506A606B7068B
:1009100008F047C09A01AB01281939094A095B0957
:100920006D8D7E8D8F8D98A10E9424102D893E891A
:100930004F89588D281939094A095B090E94920F7D
:100940002536310514F024E630E037FF02C030E0F0
:1009500020E08885882331F08E819F81821793075C
:1009600009F4BECF81E088873F832E8360E08A81CF
:100970000E944F026FE070E080E090E00E944D0323
:10098000AE81BF812CEF30E00E94341024E630E0CD
:1009900040E050E00E94920FB90188810E94B902A4
:1009A0009FCF4C155D056E057F0508F099CF898CAA
:1009B0009A8CAB8CBC8C49885A886B887C88D30114
:1009C000C201841B950BA60BB70B9C01AD01C501A1
:1009D000B4010E942410A701960124193509460983
:1009E00057090E94920F280D391D4A1D5B1D25369F
:1009F000310514F024E630E037FF02C030E020E09B
:100A00008885811106C08E819F818217930709F422
:100A100067CF18863F832E8360E088810E944F0253
:100A20006FE070E080E090E00E944D03AE81BF81F6
:100A30002CEF30E00E94341024E630E040E050E03B
:100A40000E94920FB9018A81A9CFCF93DF93EC0165
:100A500061E088810E947D0261E08A810E947D02BE
:100A600061E08C810E947D0260E088810E944F02DB
:100A700060E08A810E944F0260E08C810E944F02F8
:100A800064E670E080E090E0DF91CF910C944D033C
:100A9000FC0101900020E9F73197AF01481B590B89
:100AA000BC0188E493E00C94FA008F929F92AF927D
:100AB000BF920F931F93CF93DF93CDB7DEB7A1976C
:100AC0000FB6F894DEBF0FBECDBF19A2423008F4B6
:100AD0004AE08E010F5D1F4F842E912CB12CA12C6A
:100AE000A50194010E94F30FE62FB901CA01EA3073
:100AF000F4F4E05DD801EE938D01232B242B252BFC
:100B000079F790E080E0109719F0CD010E94480538
:100B1000A1960FB6F894DEBF0FBECDBFDF91CF9187
:100B20001F910F91BF90AF909F908F900895E95CB7
:100B3000E1CF682F70E090E080E04AE00C9455052A
:100B4000BC0190E080E04AE00C9455050C94480507
:100B5000CF93DF930E944805EC0180E491E00E946E
:100B600048058C0F9D1FDF91CF910895CF92DF92A2
:100B7000EF92FF920F931F93CF93DF9382E990E060
:100B80000E94EB0180911D030E94990583E491E08E
:100B90000E94A60580911E030E94990583E491E0BE
:100BA0000E94A60580911F03909120030E94A0053A
:100BB00083E491E00E94A605809121039091220395
:100BC0000E94A00583E491E00E94A6058091230382
:100BD000909124030E94A00583E491E00E94A60561
:100BE00080912503909126030E94A00583E491E063
:100BF0000E94A60580912703909128030E94A005DA
:100C000083E491E00E94A6058091290390912A0334
:100C10000E94A00583E491E00E94A60580912B0329
:100C20000E94990583E491E00E94A60580912C031F
:100C30000E94990583E491E00E94A60580912D030E
:100C40000E94990583E491E00E94A60580912E03FD
:100C50000E94990583E491E00E94A60580912F03EC
:100C60000E94990583E491E00E94A605C0E3D3E0C9
:100C700089910E94990583E491E00E94A60583E092
:100C8000C833D807A9F708E313E0D0E0C0E0F801C3
:100C9000C190D1908F010D2C000CEE08FF084AE0A6
:100CA000C701B601F7FE0BC08DE20E94E601662780
:100CB0007727CB016C197D098E099F094AE00E94B4
:100CC0005505C730D10521F083E491E00E94A605C7
:100CD0002196C830D105D9F685E491E0DF91CF9116
:100CE0001F910F91FF90EF90DF90CF900C94A8058B
:100CF00087E491E00E94A60587E394E00E94270123
:100D00008AE00E94E60181E394E00E9427018AE0E4
:100D10000E94E6018BE294E00E9427018AE00E9493
:100D2000E60185E491E00C94A805CF93DF930E943F
:100D3000EB01EC0180E491E00E9448058C0F9D1FBF
:100D4000DF91CF91089587E10E94E60180E491E070
:100D50000C944805FF920F931F93CF93DF9309E103
:100D600013E0D0E0C0E0F801F1908F01CE010E94C5
:100D70007C0FF81621F06F2DCE010E94840F219672
:100D8000CF32D10581F789E193E0DF91CF911F91B7
:100D90000F91FF900895FC0180819181009711F0DF
:100DA0000C94DD1008950F931F93CF93DF9388E485
:100DB00093E00E946101892B69F188E493E00E942D
:100DC0003F018C33C9F08E3351F19091F202913092
:100DD00009F52091F0023091F10220383105D4F468
:100DE000A9014F5F5F4F5093F1024093F0022059E9
:100DF0003D4FD9018C930EC081E08093F202109296
:100E0000F1021092F002E0E7F2E08FE7DF011D92BD
:100E10008A95E9F7DF91CF911F910F910895109274
:100E2000F202E091F002F091F102E059FD4F1182DF
:100E300063E471E080E792E00E94480FCCE9D1E0E2
:100E4000009761F0BC01CE010E942C1263E471E0B6
:100E500090E080E00E94480F2796F2CF8FEF9FEF3F
:100E600090936F0280936E020BE910E0D0E0C0E037
:100E7000F801659174918CE991E00E943F0F892BF4
:100E8000D9F4D0936F02C0936E0280916E0290915C
:100E90006F028230910509F4ACC0ACF40097F1F018
:100EA000019709F49DC084EF90E00E94EB0180E778
:100EB00092E00E94A805DAC021960E5F1F4FC6304F
:100EC000D105B1F6E2CF8430910509F4D5C00CF418
:100ED000CBC0059741F78CE091E07FC083EA91E0B9
:100EE0000E94210F80931D038AEA91E00E94210F46
:100EF00080931E0381EB91E00E94210F90932003C9
:100F000080931F0388EB91E00E94210F90932403AC
:100F1000809323038FEB91E00E94210F9093220393
:100F20008093210386EC91E00E94210F9093260389
:100F3000809325038DEC91E00E94210F90932A036A
:100F40008093290384ED91E00E94210F9093280360
:100F5000809327038BED91E00E94210F80932B0358
:100F600082EE91E00E94210F80932C0389EE91E0A4
:100F70000E94210F80932D0380EF91E00E94210FAA
:100F800080932E0387EF91E00E94210F80932F031F
:100F900000E313E0D0E0C0E0CE0182509E4F0E94FB
:100FA000210FF80181938F012796C833D105A1F74E
:100FB00008E313E0D0E0C0E0CE018A5C9D4F0E94C0
:100FC000210FD8018D939D938D012796C833D105AC
:100FD00099F70E94B10387EA90E00E94950646C007
:100FE0000E94AA06F0E0E0E0DF91CF911F910F91FF
:100FF000099483EA91E00E94210FEC018091130390
:10100000811109C0C130D10531F484EE90E00E9415
:1010100095060E94A30680911303813041F4CD2BE5
:1010200031F480ED90E00E9495060E94A30683EAC9
:1010300091E00E94210F809313038AEA91E00E94BD
:10104000210F909315038093140381EB91E00E948C
:10105000210F909317038093160388EB91E00E9471
:10106000210F80931803D6CE0E94B605DF91CF9151
:101070001F910F910C94A3060E947806F7CF0C9451
:10108000D3060E946D0181110C94D30608951F921E
:101090000F920FB60F9211242F933F934F935F93AC
:1010A0006F937F938F939F93AF93BF93EF93FF9330
:1010B00088E493E00E947701FF91EF91BF91AF9197
:1010C0009F918F917F916F915F914F913F912F9160
:1010D0000F900FBE0F901F9018951F920F920FB692
:1010E0000F9211242F938F939F93EF93FF93E0918F
:1010F0005803F09159038081E0915E03F0915F0302
:1011000082FD1BC09081809161038F5F8F7320915E
:101110006203821741F0E0916103F0E0E85BFC4F6D
:10112000958F80936103FF91EF919F918F912F9104
:101130000F900FBE0F901F9018958081F4CF1F92D3
:101140000F920FB60F9211242F933F938F939F937B
:10115000AF93BF938091F4029091F502A091F602B3
:10116000B091F7023091F30223E0230F2D3758F5A9
:101170000196A11DB11D2093F3028093F402909378
:10118000F502A093F602B093F7028091F8029091D5
:10119000F902A091FA02B091FB020196A11DB11DC6
:1011A0008093F8029093F902A093FA02B093FB02A5
:1011B000BF91AF919F918F913F912F910F900FBE53
:1011C0000F901F90189526E8230F0296A11DB11DC0
:1011D000D2CF1F920F920FB60F9211248F929F922F
:1011E000AF92BF92CF92DF92EF92FF920F931F9335
:1011F0002F933F934F935F936F937F938F939F931F
:10120000AF93BF93CF93DF93EF93FF93D6B1DF708C
:10121000C091FC02CD270E94280320E0AD2FB0E052
:10122000CC23F1F14C2F50E0C0FF14C034E0239FD9
:1012300080011124FD01022E02C0F595E7950A9464
:10124000E2F7E0FF16C0F801E457FE4F60837183B8
:101250008283938355954795C42F2F5F4091110347
:10126000509112034F5F5F4F50931203409311034D
:10127000D7CFF801E457FE4F80809180A280B380E1
:101280006B017C01C818D908EA08FB084601570120
:10129000F801EF5FFC4F80829182A282B382DACFA5
:1012A000D093FC02FF91EF91DF91CF91BF91AF916D
:1012B0009F918F917F916F915F914F913F912F916E
:1012C0001F910F91FF90EF90DF90CF90BF90AF9064
:1012D0009F908F900F900FBE0F901F901895EF92D8
:1012E000FF920F931F93CF93DF93EC017B01198241
:1012F00018821B821A821D821C82FB010190002031
:10130000E9F731978F01061B170BB8016F5F7F4F0D
:1013100090E080E00E9466110097B9F0998388837D
:101320001B830A832C813D81232B11F4FC01108245
:101330001D830C83B70188819981DF91CF911F9123
:101340000F91FF90EF900C942C1288819981009757
:1013500011F00E94DD10198218821D821C821B82EE
:101360001A82DF91CF911F910F91FF90EF90089516
:10137000E8E4F3E01382128288EE93E0A0E0B0E0AC
:1013800084839583A683B78382E391E091838083EE
:1013900085EC90E09587848784EC90E0978786873A
:1013A00080EC90E0918B808B81EC90E0938B828B32
:1013B00082EC90E0958B848B86EC90E0978B868B0B
:1013C000118E128E138E148E69E471E087E394E01F
:1013D0000E946F0963E671E081E394E00E946F0967
:1013E00065E771E08BE294E00E946F09E8E0F4E0C9
:1013F00083E090E09183808389E090E0938382830F
:1014000082E190E095838483E5EEF3E08AE090E06A
:10141000918380838BE090E09383828383E190E0EB
:10142000958384830895CF93DF9300D000D000D0BC
:10143000CDB7DEB7789484B5826084BD84B5816011
:1014400084BD85B5826085BD85B5816085BD80918F
:101450006E00816080936E00109281008091810007
:1014600082608093810080918100816080938100FF
:10147000809180008160809380008091B1008460C1
:101480008093B1008091B00081608093B000809122
:101490007A00846080937A0080917A0082608093E1
:1014A0007A0080917A00816080937A0080917A003E
:1014B000806880937A001092C10086E2282E81E035
:1014C000382E61E0D1018D911D010E947D02EEE276
:1014D000F1E0E215F305A9F70E9480030E948F0353
:1014E000E0915803F091590382E08083E091540326
:1014F000F09155031082E0915603F09157038FEC61
:10150000808310926003E0915C03F0915D0386E0BC
:101510008083E0915A03F0915B0380818061808336
:10152000E0915A03F0915B03808188608083E091B1
:101530005A03F0915B03808180688083E0915A03B5
:10154000F0915B0380818F7D80830E94780609E1A2
:1015500013E01A82198289819A810E947C0FD80136
:101560008D938D01E981FA813196FA83E983BF97E2
:1015700091F78091190390911A03A0911B03B091E8
:101580001C0380339144AB4AB10509F472C080E377
:1015900091E4ABEAB0E08093190390931A03A0930F
:1015A0001B03B0931C0381E080931D038BE08093A9
:1015B0001E038CED95E09093200380931F0340ED74
:1015C00057E0509324034093230328EE33E03093F5
:1015D00022032093210390932603809325035093A5
:1015E0002A0340932903309328032093270322E3FF
:1015F00020932B0324E620932C0320932D03209388
:101600002E0320932F031092300310923103109277
:101610003203109233031092340310923503109268
:1016200036031092370390933903809338039093D5
:101630003B0380933A0390933D0380933C03909344
:101640003F0380933E039093410380934003909324
:101650004303809342039093450380934403909304
:101660004703809346038FE291E00E9495060E9413
:10167000AA060E94B6051092FC0262E08EE00E946B
:101680007D0262E08FE00E947D0262E080E10E94C4
:101690007D0262E081E10E947D0280916C008F609A
:1016A00080936C00D99A8091680082608093680072
:1016B00085EE93E00E94250588E094E00E942505D0
:1016C0000E94B10381E090E09093070480930604A8
:1016D00090932A048093290485EE93E00E943C04B1
:1016E00088E094E00E943C0462E082E10E947D0276
:1016F00062E083E10E947D0260E084E10E947D025D
:1017000060E085E10E947D021092FE021092FD02CF
:1017100084E10E9416038115924034F48BE090E03E
:101720009093FE028093FD0285E10E9416038115CD
:10173000924034F485E190E09093FE028093FD02A4
:1017400085E10E9416039A83898384E10E9416032F
:1017500049815A81411552404CF48115924034F42C
:1017600087E190E09093FE028093FD0203E0802EDB
:10177000912CA12CB12C809113038111CFC28091A7
:10178000110390911203892B09F496C0F8941092DA
:101790001203109211038091010390910203A09112
:1017A0000303B09104038093080190930901A0936F
:1017B0000A01B0930B018091050390910603A0915B
:1017C0000703B091080380930C0190930D01A0933F
:1017D0000E01B0930F018091090390910A03A0912B
:1017E0000B03B0910C038093100190931101A0930F
:1017F0001201B093130180910D0390910E03A091FB
:101800000F03B09110038093140190931501A093DE
:101810001601B09317017894C0901001D090110177
:10182000E0901201F0901301809114019091150144
:10183000AC014C5E5F4F4497E8E3F3E01A821982F3
:1018400021913191241735071CF4821793076CF00E
:1018500029813A812F5F3F4F3A8329832830310510
:1018600079F74FEF5FEF5A83498364E670E080E0D9
:1018700090E00E944D0389819A810196C9F51092EA
:1018800000031092FF02E0E3F3E0FA83E98310E043
:1018900000E0A981BA818D91BA83A983811107C023
:1018A00060E0F801EA5DFE4F80810E944F020F5F09
:1018B0001F4F0830110569F78091FD029091FE02DB
:1018C000009711F480911E03873109F40CC108F0D0
:1018D0008BC08B3009F4A5C018F0853108F0D0C05A
:1018E0000E946D01882309F446CF0E94D30643CF9E
:1018F000B6EDCB16B6E0DB06E104F10408F07BC2DE
:1019000010E3612E13E0712E730110E000E0E98115
:10191000FA81EA5DFE4F6F01D7018D917D01811142
:101920000AC0E981FA81E017F10729F461E0D601E4
:101930008C910E944F020F5F1F4F0830110561F715
:101940008091FF0290910003892B09F0B5CF90E0C0
:1019500080E010E000E0E981FA81EA5DFE4F7F015E
:10196000D3012D913D01213009F033C0E981FA8185
:10197000E017F10771F5D701DC902D2D30E0F9016A
:10198000E957FE4F8491F901ED58FE4FC490F901DB
:10199000E15AFE4F549070E060E0552099F08111BB
:1019A0000E942602E52DF0E0EE0FFF1FEB5AFE4FDE
:1019B000A591B491EC91CE2291E080E009F490E001
:1019C000692F782FB1E06B278D2D0E944F0281E0A7
:1019D00090E00F5F1F4F0830110509F0C1CF9093C1
:1019E00000038093FF0268CF803209F4CDC070F409
:1019F0008F3109F075CF85EE93E00E943C0488E0BA
:101A000094E00E943C040E948F036ACF893209F45B
:101A1000E8C08B3509F064CF85EE93E00E943C046A
:101A20002AC0609104017091050180910601909196
:101A30000701660F771F881F991F009108011091F9
:101A4000090120910A0130910B01600F711F821F63
:101A5000931FA50194010E94F30FBA01A9014093BD
:101A6000040150930501609306017093070185EE10
:101A700093E00E944D0488E094E00E943C0430CF43
:101A80006091040170910501809106019091070118
:101A9000660F771F881F991F009108011091090197
:101AA00020910A0130910B01600F711F821F931F5B
:101AB000A50194010E94F30F69017A01C09204010B
:101AC000D0920501E0920601F0920701BA01A90146
:101AD00085EE93E00E944D04B701A60188E094E0F2
:101AE0000E944D04FDCE609104017091050180912A
:101AF000060190910701660F771F881F991F0091BB
:101B000008011091090120910A0130910B01600F29
:101B1000711F821F931FA50194010E94F30FBA0148
:101B2000A90140930401509305016093060170934D
:101B3000070185EE93E00E944D04609100017091D1
:101B400001018091020190910301660F771F881FA8
:101B5000991F00910C0110910D0120910E013091FF
:101B60000F01600F711F821F931FA50194010E9436
:101B7000F30FBA01A9014093000150930101609352
:101B8000020170930301AACF85EE93E00E943C040A
:101B900088E094E00E943C04E5E0F0E0FA83E98309
:101BA00006E211E061E0D8018D918D010E944F02A3
:101BB00020163106B9F764EF71E080E090E00E94F2
:101BC0004D030E94800364EF71E080E090E00E948A
:101BD0004D03E981FA813197FA83E983EF2B01F70D
:101BE0007FCE85EE93E00E943C0488E094E00E9462
:101BF0003C0440900D0350900E0360900F037090D2
:101C0000100362E370E080E090E00E944D03C12C7D
:101C1000D12C76011E821D82A30192012951310926
:101C20004109510929833A834B835C8339E1430E8F
:101C3000511C611C711C80910D0390910E03A091A9
:101C40000F03B091100329813A814B815C81821787
:101C50009307A407B50770F080910D0390910E03D0
:101C6000A0910F03B0911003481659066A067B062F
:101C700008F041C080910D0390910E03A0910F03D5
:101C8000B09110038C159D05AE05BF05A1F580919F
:101C90000D0390910E03A0910F03B0911003ED81FD
:101CA000FE81EE0FFF1FE75EFC4F90A3878F64E17C
:101CB00070E080E090E00E944D0361E0ED81FE81E4
:101CC000EA5DFE4F80810E944F0268EE73E080E083
:101CD00090E00E944D038D819E8101969E838D83AD
:101CE000089709F0A8CF9BE590931E030E94AA06CF
:101CF0000E948003F5CD4D815E81415051095E8384
:101D00004D83C0900D03D0900E03E0900F03F09030
:101D1000100364E170E080E090E0DBCF60911C0193
:101D200070911D0180911E0190911F01660F771F18
:101D3000881F991F2091140330911503620F731FA0
:101D4000811D911DA50194010E94F30F69017A0183
:101D5000C0921C01D0921D01E0921E01F0921F0161
:101D6000609118017091190180911A0190911B01E5
:101D7000660F771F881F991F209116033091170354
:101D8000620F731F811D911DA50194010E94F30F25
:101D900029013A01409218015092190160921A01EA
:101DA00070921B01B701A60185EE93E00E944D04DD
:101DB000B301A20188E094E00E944D0406E211E024
:101DC0001A821982D8018D918D012091180330E07B
:101DD000098002C0359527950A94E2F761E020FF5B
:101DE00060E00E944F02E981FA813196FA83E9832B
:101DF000389741F775CD36EDC31636E0D306E104CA
:101E0000F10409F459CD81E891E00E94A6052981E9
:101E10003A81B901330F880B990B4AE00E945505AE
:101E200080E491E00E94480547CD8BE294E00E9457
:101E3000CB0681E394E00E94CB0687E394E00C9408
:101E4000CB06FC0188279927E89421912032E9F3F9
:101E5000293010F02E30C8F32B3241F02D3239F4F6
:101E6000689404C00E94740F820F911D2191205329
:101E70002A30C0F31EF4909581959F4F0895FB0181
:101E8000DC018D91059080190110D9F3990B08950B
:101E90004DE354E00E944D0F0895FA01A191B081E5
:101EA000009719F41097E1F0CD01DC01CD010D9000
:101EB000002011F4C00113C0FB012191222319F06D
:101EC0002015D9F7F3CFFB012191201519F41E92AB
:101ED000119606C02223C1F70D900020A1F7D00172
:101EE000FA01A193B08308957AE0979F902D879F80
:101EF000802D910D11240895F999FECF92BD81BDD9
:101F0000F89A992780B50895262FF999FECF1FBA20
:101F100092BD81BD20BD0FB6F894FA9AF99A0FBE12
:101F200001960895052E97FB1EF400940E94A90FB8
:101F300057FD07D00E94F30F07FC03D04EF40C941A
:101F4000A90F50954095309521953F4F4F4F5F4FCA
:101F5000089590958095709561957F4F8F4F9F4F15
:101F600008950E941510A59F900DB49F900DA49FF9
:101F7000800D911D112408952F923F924F925F92F0
:101F80006F927F928F929F92AF92BF92CF92DF9289
:101F9000EF92FF920F931F93CF93DF93CDB7DEB7EE
:101FA000CA1BDB0B0FB6F894DEBF0FBECDBF099482
:101FB0002A88398848885F846E847D848C849B84D9
:101FC000AA84B984C884DF80EE80FD800C811B81E7
:101FD000AA81B981CE0FD11D0FB6F894DEBF0FBE16
:101FE000CDBFED010895A1E21A2EAA1BBB1BFD0176
:101FF0000DC0AA1FBB1FEE1FFF1FA217B307E407E8
:10200000F50720F0A21BB30BE40BF50B661F771F3F
:10201000881F991F1A9469F760957095809590951F
:102020009B01AC01BD01CF010895A29FB001B39FF8
:10203000C001A39F700D811D1124911DB29F700DD1
:10204000811D1124911D0895DB018F939F930E94A0
:10205000B10FBF91AF91A29F800D911DA39F900DD5
:10206000B29F900D112408950E941510B7FF089596
:10207000821B930B0895EE0FFF1F0590F491E02D46
:1020800009940F931F93CF93DF938230910510F43F
:1020900082E090E0E0914104F091420430E020E0E1
:1020A000B0E0A0E0309799F42115310509F44AC059
:1020B000281B390B24303105D8F58A819B816115A5
:1020C000710589F1FB0193838283FE0111C0408178
:1020D00051810281138148175907E0F048175907C9
:1020E00099F4109761F012960C93129713961C9323
:1020F0003296CF01DF91CF911F910F9108950093F8
:10210000410410934204F4CF2115310551F04217D8
:10211000530738F0A901DB019A01BD01DF01F80185
:10212000C1CFEF01F9CF9093420480934104CDCF0A
:10213000FE01E20FF31F81939193225031093983FD
:102140002883D7CF20913F0430914004232B41F4C2
:1021500020912201309123013093400420933F04C9
:1021600020912001309121012115310541F42DB735
:102170003EB74091240150912501241B350BE0917D
:102180003F04F0914004E217F307A0F42E1B3F0B2D
:102190002817390778F0AC014E5F5F4F24173507D9
:1021A00048F04E0F5F1F5093400440933F048193CB
:1021B00091939FCFF0E0E0E09CCFCF93DF93009727
:1021C000E9F0FC01329713821282A0914104B09190
:1021D0004204ED0130E020E01097A1F4208131812C
:1021E000820F931F20913F04309140042817390734
:1021F00009F061C0F0934004E0933F04DF91CF9178
:102200000895EA01CE17DF07E8F54A815B819E0158
:1022100041155105B1F7E901FB83EA8349915991D1
:10222000C40FD51FEC17FD0761F4808191810296E0
:10223000840F951FE90199838883828193819B8311
:102240008A83F0E0E0E012968D919C9113970097BD
:10225000B9F52D913C911197CD010296820F931FF4
:1022600020913F04309140042817390739F6309700
:1022700051F51092420410924104B0934004A0938F
:102280003F04BCCFD383C28340815181840F951F0B
:10229000C817D90761F44E5F5F4F88819981480F55
:1022A000591F518340838A819B81938382832115A7
:1022B000310509F0B0CFF0934204E09341049ECF82
:1022C000FD01DC01C0CF13821282D7CFB0E0A0E0C5
:1022D000ECE6F1E10C94BE0F8C01009751F4CB01B8
:1022E0000E9441108C01C801CDB7DEB7E0E10C942B
:1022F000DA0FFC01E60FF71F9C0122503109E217AB
:10230000F30708F49DC0D901CD91DC911197C61750
:10231000D70798F0C530D10530F3CE010497861762
:10232000970708F3C61BD70B2297C193D1936D93E0
:102330007C93CF010E94DD10D6CF5B01AC1ABD0AA1
:102340004C018C0E9D1EA0914104B0914204512C71
:10235000412CF12CE12C109731F580913F049091A4
:1023600040048815990509F05CC04616570608F028
:1023700058C08091200190912101009741F48DB7C0
:102380009EB74091240150912501841B950BE817BD
:10239000F90708F055C0F0934004E0933F04F901B9
:1023A00071836083A0CF8D919C91119712966C9050
:1023B000129713967C901397A815B90559F56C01DF
:1023C00042E0C40ED11CCA14DB0420F1AC014A194E
:1023D0005B09DA011296159780F06282738251834D
:1023E0004083D9016D937C93E114F10471F0D7011E
:1023F0001396FC93EE93129776CF22968C0F9D1F27
:10240000F90191838083F301EFCFF0934204E093CD
:10241000410469CF4816590608F42C017D01D30107
:102420009ACFCB010E9441107C01009749F0AE0188
:10243000B8010E942312C8010E94DD10870153CF0A
:1024400010E000E050CFFB01DC0102C001900D92D2
:1024500041505040D8F70895FB01DC0101900D92E6
:102460000020E1F7089510E0CFECD0E004C0FE01B9
:102470000E943B102196C03DD107C9F7F894FFCFC9
:10248000DC050000DC050000DC050000DC050000C8
:10249000DC050000DC050000DC050000DC050000B8
:1024A0000000430480000C08070605040D0200002C
:1024B00000009901FA003001060261013F01530159
:1024C0000D0A007C003E003C005661726961746533
:1024D00075722049425434202B20524320416464B9
:1024E0006F6E0056657273696F6E20332E332E3215
:1024F0003320425400536570203233203230323062
:0C250000004D6F72636561753A200000A9
:00000001FF
