:100000000C94AB000C94D3000C94D3000C94D3004C
:100010000C94580D0C94D3000C94D3000C94D30082
:100020000C94D3000C94D3000C94D3000C94D30004
:100030000C94D3000C94D3000C94D3000C94D300F4
:100040000C940E0D0C94D3000C94DC0C0C94B60C98
:100050000C94D3000C94D3000C94D3000C94D300D4
:100060000C94D3000C94D3003C436F6E6E6578699A
:100070006F6E204F4B3E003C53696D756C6174652B
:100080007572204F4B20213E003C4E6F7576656C9B
:100090006C6520636F6E66696775726174696F6EF7
:1000A000204348415247454D454E54204F4B202157
:1000B0003E003C4E6F7576656C6C6520636F6E66B6
:1000C000696775726174696F6E2053415556454773
:1000D00041524445204F4B20213E000000000024A7
:1000E0000027002A0000000000250028002B000443
:1000F00004040404040404020202020202030303CF
:1001000003030301020408102040800102040810C8
:100110002001020408102000000008000201000075
:1001200003040700000000000000005072656D69C4
:10013000C3A9726520736175766567617264652015
:10014000646520636F6E66696775726174696F6E4E
:100150000000DE0DE21211241FBECFEFD8E0DEBF9B
:10016000CDBF11E0A0E0B1E0EAE5FCE202C00590FD
:100170000D92A43BB107D9F723E0A4EBB1E001C095
:100180001D92A835B207E1F710E0CAEAD0E004C03A
:100190002197FE010E94ED13C93AD107C9F70E94C9
:1001A000370E0C9420160C940000AF92BF92CF92A1
:1001B000DF92EF92FF920F931F93CF93DF936C0127
:1001C0007B018B01040F151FEB015E01AE18BF0808
:1001D000C017D10759F06991D601ED91FC910190BA
:1001E000F081E02DC6010995892B79F7C501DF91D2
:1001F000CF911F910F91FF90EF90DF90CF90BF9024
:10020000AF900895FC01538D448D252F30E0842F4D
:1002100090E0821B930B541710F0CF96089501972E
:100220000895FC01918D828D981761F0A28DAE0F1B
:10023000BF2FB11D5D968C91928D9F5F9F77928F9E
:1002400090E008958FEF9FEF0895FC01918D828DCE
:10025000981731F0828DE80FF11D858D90E008959B
:100260008FEF9FEF0895FC01918D228D892F90E0F3
:1002700080589F4F821B91098F779927089581E2BB
:1002800092E00E94330121E0892B09F420E0822FC3
:100290000895FC01A48DA80FB92FB11DA356BF4F1F
:1002A0002C91848D90E001968F739927848FA68975
:1002B000B7892C93A089B1898C91837080648C93C9
:1002C000938D848D981306C00288F389E02D808178
:1002D0008F7D80830895EF92FF920F931F93CF93AA
:1002E000DF93EC0181E0888F9B8D8C8D98131AC071
:1002F000E889F989808185FF15C09FB7F894EE8958
:10030000FF896083E889F9898081837080648083B4
:100310009FBF81E090E0DF91CF911F910F91FF90FF
:10032000EF900895F62E0B8D10E00F5F1F4F0F73A7
:100330001127E02E8C8D8E110CC00FB607FCFACF62
:10034000E889F989808185FFF5CFCE010E944901B6
:10035000F1CFEB8DEC0FFD2FF11DE356FF4FF08237
:100360009FB7F8940B8FEA89FB8980818062CFCF99
:100370000F931F93CF93DF938C01D0E0C0E0F8017F
:10038000EC0FFD1F6491662341F081E292E00E9430
:100390006B01892B11F02196F2CFCE01DF91CF9125
:1003A0001F910F910895CF93DF93EC01888D8823DF
:1003B000B9F0AA89BB89E889F9898C9185FD03C0C8
:1003C000808186FD0DC00FB607FCF7CF8C9185FFAD
:1003D000F2CF808185FFEDCFCE010E944901E9CFA8
:1003E000DF91CF91089590E0FC01E95EFE4F2491EA
:1003F000FC01ED5FFE4F3491FC01E151FF4FE491B0
:10040000EE23C9F0222339F0233001F1A8F4213082
:1004100019F1223029F1F0E0EE0FFF1FEB51FF4FF1
:10042000A591B4918FB7F894EC91611126C03095E5
:100430003E233C938FBF08952730A9F02830C9F0A0
:10044000243049F7809180008F7D03C08091800027
:100450008F7780938000DFCF84B58F7784BDDBCF2B
:1004600084B58F7DFBCF8091B0008F778093B000F3
:10047000D2CF8091B0008F7DF9CF3E2BDACFCF93D2
:10048000DF9390E0FC01ED5FFE4F249181519F4F7F
:10049000FC0184918823C9F090E0880F991FFC012A
:1004A000E552FF4FA591B491FC01EB51FF4FC5916F
:1004B000D49161110DC09FB7F8948C91209582233F
:1004C0008C938881282328839FBFDF91CF91089543
:1004D000623051F49FB7F8943C91822F809583232A
:1004E0008C93E8812E2BEFCF8FB7F894EC912E2BC5
:1004F0002C938FBFEACF1F93CF93DF93182FEB017D
:1005000061E00E943F02209739F460E0812FDF9183
:10051000CF911F910C94F301CF3FD10511F461E00D
:10052000F5CFE12FF0E0E95EFE4FE491E33031F1E9
:1005300040F4E130B1F0E230E1F0C038D1057CF7B1
:10054000E4CFE73029F1E83059F1E430B1F7809198
:100550008000806280938000D0938B00C0938A00DB
:1005600004C084B5806884BDC7BDDF91CF911F9161
:10057000089584B5806284BDC8BDF7CF80918000A6
:10058000806880938000D0938900C0938800EDCF6D
:100590008091B00080688093B000C093B300E5CF35
:1005A0008091B00080628093B000C093B400DDCF32
:1005B0008E50806480937C0080917A008064809368
:1005C0007A0080917A0086FDFCCF8091780090912E
:1005D000790008953FB7F8948091C9019091CA01BC
:1005E000A091CB01B091CC0126B5A89B05C02F3FAF
:1005F00019F00196A11DB11D3FBFBA2FA92F982F49
:100600008827BC01CD01620F711D811D911D42E043
:10061000660F771F881F991F4A95D1F708958F920B
:100620009F92AF92BF92CF92DF92EF92FF926B01B7
:100630007C010E94EA024B015C01C114D104E10477
:10064000F104B9F00E94EA02681979098A099B0944
:10065000683E73408105910580F321E0C21AD108FC
:10066000E108F10888EE880E83E0981EA11CB11CF9
:10067000E4CFFF90EF90DF90CF90BF90AF909F902E
:100680008F900895CF93DF93C6E2D1E060E0899127
:100690000E94F30181E0CE32D807C1F7DF91CF91FC
:1006A0000895CF93DF93C6E2D1E061E089910E9483
:1006B000F30164E670E080E090E00E940F0381E0C7
:1006C000CE32D80791F764E670E080E090E00E94B7
:1006D0000F030E94420364E670E080E090E0DF9147
:1006E000CF910C940F03CF93DF93EC0160E08881EE
:1006F0000E94F30160E08A81DF91CF910C94F301B5
:100700004F925F926F927F928F929F92AF92BF9221
:10071000CF92DF92EF92FF92CF93DF93EC01809123
:10072000040290E0613009F068C06091F8017091B6
:10073000F901860F971FB0E0A0E08B879C87AD87FB
:10074000BE8780910402681B7109CB01B0E0A0E074
:100750008F839887A987BA878091FC019091FD01CA
:10076000B0E0A0E08B8B9C8BAD8BBE8B8091FA01AF
:100770009091FB01B0E0A0E08F87988BA98BBA8B9A
:100780008091050290E0B0E0A0E08B8F9C8FAD8F50
:10079000BE8F8091060290E0B0E0A0E08F8B988F32
:1007A000A98FBA8FCF80D884E984FA848B849C8403
:1007B000AD84BE84C216D306E406F50608F057C021
:1007C000281539054A055B0508F051C0CE010E9485
:1007D000730364E170E080E090E0DF91CF91FF90DF
:1007E000EF90DF90CF90BF90AF909F908F907F90D1
:1007F0006F905F904F900C940F036091FE01709189
:10080000FF01860F971FB0E0A0E08B879C87AD8724
:10081000BE87609104028091FE019091FF01861BCA
:100820009109B0E0A0E08F839887A987BA8780916B
:10083000020290910302B0E0A0E08B8B9C8BAD8B09
:10084000BE8B8091000290910102B0E0A0E08F8702
:10085000988BA98BBA8B8091070290E0B0E0A0E062
:100860008B8F9C8FAD8FBE8F8091080294CF8216A4
:100870009306A406B50608F045C0281939094A09A7
:100880005B096B8D7C8D8D8D9E8D0E94D6132B897F
:100890003C894D895E89281939094A095B090E94FA
:1008A00044132536310514F024E630E037FF02C04A
:1008B00030E020E08E81882331F08C819D81821789
:1008C000930709F486CF81E08E833D832C8360E01B
:1008D0008A810E94F3016FE070E080E090E00E9466
:1008E0000F03AC81BD812CEF30E00E94E61324E6BB
:1008F00030E040E050E00E944413B90188810E943A
:100900007B0267CF2C153D054E055F0508F050C0F2
:100910008F88988CA98CBA8C4F84588869887A887B
:10092000D301C201821B930BA40BB50B9C01AD013B
:10093000C501B4010E94D613A701960124193509F7
:10094000460957090E944413820E931EA41EB51E29
:1009500095E6891691041CF084E6882E912C97FE6A
:1009600002C0912C812C8E81811106C08C819D81C9
:100970008815990509F42DCF1E829D828C8260E036
:1009800088810E94F3016FE070E080E090E00E94B7
:100990000F03AC81BD812CEF30E00E94E61324E60A
:1009A00030E040E050E00E944413B9018A81A7CFB3
:1009B000DF91CF91FF90EF90DF90CF90BF90AF90FD
:1009C0009F908F907F906F905F904F900895CF93FE
:1009D000DF93EC0161E088810E943F0261E08A813F
:1009E0000E943F0260E088810E94F30160E08A81FA
:1009F0000E94F3016CE271E080E090E0DF91CF9122
:100A00000C940F03FF920F931F93CF93DF9302EF8A
:100A100011E0D0E0C0E0F801F1908F01CE010E941A
:100A20002E13F81621F06F2DCE010E943613219659
:100A3000CF32D10581F782EF91E0DF91CF911F9105
:100A40000F91FF900895FC0101900020E9F7319784
:100A5000AF01481B590BBC0181E292E00C94D50018
:100A60008F929F92AF92BF920F931F93CF93DF937A
:100A7000CDB7DEB7A1970FB6F894DEBF0FBECDBFDE
:100A800019A2423008F44AE08E010F5D1F4F842EF8
:100A9000912CB12CA12CA50194010E94A513E62F45
:100AA000B901CA01EA30F4F4E05DD801EE938D019A
:100AB000232B242B252B79F790E080E0109719F059
:100AC000CD010E942305A1960FB6F894DEBF0FBE9C
:100AD000CDBFDF91CF911F910F91BF90AF909F90AD
:100AE0008F900895E95CE1CFCF92DF92EF92FF9271
:100AF000CF93DF936B017C016DE281E292E00E9473
:100B00006B01EC0166277727CB016C197D098E09F3
:100B10009F094AE00E9430058C0F9D1FDF91CF9105
:100B2000FF90EF90DF90CF900895682F70E090E0F5
:100B300080E04AE00C943005BC0190E080E04AE09F
:100B40000C9430050C942305CF93DF93FC01448172
:100B500055816081718181E292E00E94D500EC01B3
:100B600080E491E00E9423058C0F9D1FDF91CF91BF
:100B70000895CF93DF930E94B801EC0180E491E0E7
:100B80000E9423058C0F9D1FDF91CF91089567E18F
:100B900081E292E00E946B0180E491E00C942305D5
:100BA00083E491E00E94A2058EE493E00E94A405F4
:100BB00088E493E00E94A405E2E4F3E044815581D7
:100BC0006081718181E292E00E94D50085E491E02C
:100BD0000E94230580E491E00C942305CF93DF93DA
:100BE0002091400330914103232B89F0FC01C091F7
:100BF0003C03D0913D0360817181CE010E940616B5
:100C0000009729F08C1B9D0BDF91CF9108958FEFFA
:100C10009FEFFACF40914003509141034115510598
:100C2000F1F0BA018417950708F4BC0180913C03E8
:100C300090913D03461B570B509341034093400353
:100C4000680F791F0E94F715E0913C03F0913D0376
:100C50008091400390914103E80FF91F108208959D
:100C60002F923F924F925F926F927F928F929F92BC
:100C7000AF92BF92CF92DF92EF92FF920F931F93AA
:100C8000CF93DF936090400370904103611471042F
:100C900009F410C1FC01848095808114910409F449
:100CA00009C18B017C01FB01C480D580C818D9081B
:100CB000C0913C03D0913D03C114D104B9F4F701B4
:100CC00060817181CE010E940616EC01009709F443
:100CD000F1C0F80160817181448155810E94D51570
:100CE000F80184819581C80FD91FE9CFD7FC10C0C6
:100CF000FC01408051805301CE01B2010E940616D2
:100D0000009709F44CC0880D991DAC0CBD1CF5CFA3
:100D10005E01F70160817181CE010E9406163C01DF
:100D2000009739F14C018C1A9D0AA401BE01C5013E
:100D30000E94D515A80CB91CF8016081718144810D
:100D40005581C5010E94D515F80184819581A80EB1
:100D5000B91EF701C481D581C60DD71D809140030E
:100D6000909141038C0D9D1D90934103809340030E
:100D7000D0CFBE01C501DF91CF911F910F91FF90A0
:100D8000EF90DF90CF90BF90AF909F908F907F902B
:100D90006F905F904F903F902F900C94F0156A14D5
:100DA0007B0409F487C080913E0390913F038A152C
:100DB0009B0588F4B5016F5F7F4FCE010E94181527
:100DC000009709F477C090933D0380933C03B09261
:100DD0003F03A0923E03C0914003D091410321976D
:100DE000D7FD68C04E01F70144805580411451047D
:100DF00009F460C0A0904003B0904103A114B10475
:100E000009F458C0A414B50408F454C0CA15DB058D
:100E100020F04501F1E08F1A910860903C0370903A
:100E20003D03C301CFEFDFEF1301280C391C281657
:100E3000390688F0F701608171810E9406160097DB
:100E400051F09C01261937098216930608F49E0179
:100E50000196E901ECCFD7FD2DC04C0E5D1EC301FC
:100E6000840D951DA50144195509BC018C0D9D1DCE
:100E70000E94DE1580914003909141038C0D9D1DD1
:100E8000909341038093400320913C0330913D03B4
:100E9000820F931FFC01108280913C0390913D03CF
:100EA000F80160817181448155818C0F9D1F0E94E2
:100EB000D51595CFDF91CF911F910F91FF90EF90B6
:100EC000DF90CF90BF90AF909F908F907F906F906A
:100ED0005F904F903F902F9008950F931F93CF9363
:100EE000DF93EC0188819981009759F02A813B8139
:100EF0002617370730F081E0DF91CF911F910F91D6
:100F000008958B016F5F7F4F0E941815009759F06D
:100F1000998388831B830A832C813D81232B59F776
:100F2000FC011082E8CF80E0E7CFFC018081918155
:100F3000009711F00C94F21260E070E0CB0108957C
:100F4000CF93DF93EC0188819981009711F00E9483
:100F50008F14198218821D821C821B821A82DF91D3
:100F6000CF910895EF92FF920F931F93CF93DF934A
:100F7000EC017B018A01BA010E946D0781110BC04F
:100F8000CE010E94A007CE01DF91CF911F910F915A
:100F9000FF90EF9008951D830C83B701888199819C
:100FA0000E94F015F0CFCF93DF93EC01FB01861781
:100FB000970749F0608171816115710541F04481A5
:100FC00055810E94B207CE01DF91CF9108950E9412
:100FD000A007F9CFFC0111821082138212821582C0
:100FE00014826CE373E00C94D307FC01118210822D
:100FF0001382128215821482FB0101900020E9F70E
:101000003197AF01461B570B0C94B2078F929F92FA
:10101000AF92BF92CF92DF92EF92FF920F931F9306
:10102000CF93DF93EC018B01FB01C480D580D60107
:1010300011972FEF3FEFB12CA12C90E080E070E0F2
:1010400060E0A817B9072CF14617570734F1FC01E7
:1010500031967F018C159D0560F4F80180809180A8
:101060008114910431F0F401E80FF91FE081EC32B2
:1010700019F0A817B90759F46F5F7F4F5901FFEFB7
:10108000AF1ABF0A9701A817B90709F09C01C70159
:10109000D8CF461757070CF046C069012A153B0503
:1010A00010F06501590162E471E0CE010E94F5077C
:1010B000F801E480F580CE14DF0418F5AE14BF0407
:1010C00008F47501F80160817181FB01EE0DFF1DCF
:1010D000B08010826C0D7D1D6115710501F1FB0161
:1010E00001900020E9F73197AF01461B570BCE0165
:1010F0000E94B207F80180819181E80EF91EF70184
:10110000B082CE01DF91CF911F910F91FF90EF90B0
:10111000DF90CF90BF90AF909F908F900895CE01B9
:101120000E94A007E7CF62E471E0CE010E94F507BC
:10113000E8CFFC01808191810C948F14EF92FF9293
:101140000F931F93CF93DF93CDB7DEB72C970FB6D6
:10115000F894DEBF0FBECDBF67E471E0CE0101960B
:101160000E94F507CE0101960E94EE058C01CE018A
:1011700001960E94990817FD15C00E94020582EB96
:1011800090E00E94B8010E94C7052C960FB6F89413
:10119000DEBF0FBECDBFDF91CF911F910F91FF90AA
:1011A000EF9008956EE471E0CE0101960E94F5077C
:1011B000CE0101960E94EE058C01CE0101960E949F
:1011C000990817FD03C00E94D005DDCF6BE671E0E2
:1011D000CE0101960E94F507CE0101960E94EE0510
:1011E0008C01CE0101960E949908012B09F0BFC124
:1011F00085E090E00E940A0662E471E0CE0101966B
:101200000E94F50765E571E0CE0107960E94F5079B
:10121000BE016F5F7F4FCE0107960E943006CE0160
:1012200007960E949908CE0101960E949908CE0166
:1012300007960E94EA0750E040E0BE01695F7F4FD9
:10124000CE0101960E940608CE0101960E949507E4
:101250006093F701CE0101960E949908CE0107968E
:101260000E949908CE0107960E94EA0741E050E0EB
:10127000BE01695F7F4FCE0101960E940608CE0134
:1012800001960E9495077093F9016093F801CE01D1
:1012900001960E949908CE0107960E949908CE01F6
:1012A00007960E94EA0743E050E0BE01695F7F4F66
:1012B000CE0101960E940608CE0101960E94950774
:1012C0007093FD016093FC01CE0101960E94990884
:1012D000CE0107960E949908CE0107960E94EA0760
:1012E00042E050E0BE01695F7F4FCE0101960E944F
:1012F0000608CE0101960E9495077093FB0160934A
:10130000FA01CE0101960E949908CE0107960E942B
:101310009908CE0107960E94EA0744E050E0BE011A
:10132000695F7F4FCE0101960E940608CE010196AB
:101330000E9495077093FF016093FE01CE01019614
:101340000E949908CE0107960E949908CE0107963F
:101350000E94EA0746E050E0BE01695F7F4FCE0180
:1013600001960E940608CE0101960E94950770938F
:10137000030260930202CE0101960E949908CE01F9
:1013800007960E949908CE0107960E94EA0745E059
:1013900050E0BE01695F7F4FCE0101960E940608B2
:1013A000CE0101960E94950770930102609300029E
:1013B000CE0101960E949908CE0107960E949908D5
:1013C000CE0107960E94EA0747E050E0BE01695F40
:1013D0007F4FCE0101960E940608CE0101960E9421
:1013E000950760930402CE0101960E949908CE01F0
:1013F00007960E949908CE0107960E94EA0748E0E6
:1014000050E0BE01695F7F4FCE0101960E94060841
:10141000CE0101960E94950760930502CE010196C8
:101420000E949908CE0107960E949908CE0107965E
:101430000E94EA0749E050E0BE01695F7F4FCE019C
:1014400001960E940608CE0101960E9495076093BE
:101450000602CE0101960E949908CE0107960E94CD
:101460009908CE0107960E94EA074AE050E0BE01C3
:10147000695F7F4FCE0101960E940608CE0101965A
:101480000E94950760930702CE0101960E94990879
:10149000CE0107960E949908CE0107960E94EA079E
:1014A0004BE050E0BE01695F7F4FCE0101960E9484
:1014B0000608CE0101960E94950760930802CE01AE
:1014C00001960E949908CE0107960E94990899E01A
:1014D000E92E92E0F92E0CE010E0CE0107960E9472
:1014E000EA07A801BE01695F7F4FCE0101960E9405
:1014F0000608CE0101960E949507F70161937F01CE
:10150000CE0101960E949908CE0107960E94990883
:101510000F5F1F4F0431110501F781E1E82E82E0D2
:10152000F82ECE0107960E94EA07A801BE01695F66
:101530007F4FCE0101960E940608CE0101960E94BF
:101540009507F701619371937F01CE0101960E9487
:101550009908CE0107960E9499080F5F1F4F0C3122
:101560001105F9F689E890E00E94B9050CCE67E50F
:1015700071E0CE0101960E94F507CE0101960E940E
:10158000EE058C01CE0101960E94990817FDFDCD54
:1015900088E090E00E940A0662E471E0CE010196C4
:1015A0000E94F50765E571E0CE0107960E94F507F8
:1015B000BE016F5F7F4FCE0107960E943006CE01BD
:1015C00007960E949908CE0101960E949908CE01C3
:1015D00007960E94EA0750E040E0BE01695F7F4F36
:1015E000CE0101960E940608CE0101960E94950741
:1015F0006093EC01CE0101960E949908CE010796F6
:101600000E949908CE0107960E94EA0741E050E047
:10161000BE01695F7F4FCE0101960E940608CE0190
:1016200001960E9495077093EE016093ED01CE0143
:1016300001960E949908CE0107960E949908CE0152
:1016400007960E94EA0742E050E0BE01695F7F4FC3
:10165000CE0101960E940608CE0101960E949507D0
:101660007093F0016093EF01CE0101960E949908FA
:10167000CE0107960E949908CE0107960E94EA07BC
:1016800043E050E0BE01695F7F4FCE0101960E94AA
:101690000608CE0101960E9495076093F101CE01E4
:1016A00001960E949908CE0107960E94990887E743
:1016B00090E05ACFEF92FF920F931F93CF93DF9357
:1016C000CDB7DEB728970FB6F894DEBF0FBECDBFFB
:1016D00081E292E00E94330118161906E4F581E2D6
:1016E00092E00E9411018C018A30910519F0479710
:1016F00009F007C16EE571E0CE0101960E94F50781
:101700008091400390914103892B91F100913C031A
:1017100010913D0369817A81C8010E9406160097E5
:1017200039F19C01201B310B8901CE0101960E94E9
:10173000990817FD20C088E690E00E94B9050E9434
:10174000D0050E94C70550E040E062E471E08CE300
:1017500093E00E94B20728960FB6F894DEBF0FBE42
:10176000CDBFDF91CF911F910F91FF90EF90089522
:101770000FEF1FEFDACF68E671E0CE0101960E940D
:10178000F507CE0101960E94EE058C01CE0101966F
:101790000E94990817FDB2C083E491E00E94A2055F
:1017A0008FE691E00E94A2058091F7010E949505C5
:1017B00085E791E00E94A2058091F8019091F901DE
:1017C0000E949C0585E791E00E94A2058091FA01A4
:1017D0009091FB010E949C0585E791E00E94A20583
:1017E0008091FC019091FD010E949C0585E791E0AC
:1017F0000E94A2058091FE019091FF010E949C052C
:1018000085E791E00E94A20580910002909101027B
:101810000E949C0585E791E00E94A205809102024A
:10182000909103020E949C0585E791E00E94A20529
:10183000809104020E94950585E791E00E94A2052F
:10184000809105020E94950585E791E00E94A2051E
:10185000809106020E94950585E791E00E94A2050D
:10186000809107020E94950585E791E00E94A205FC
:10187000809108020E94950585E791E00E94A205EB
:1018800009E012E0F80181918F010E94950585E73A
:1018900091E00E94A205F2E001311F0799F781E172
:1018A000E82E82E0F82E10E000E0F70161917191DE
:1018B0007F01072E000C880B990B97FF1BC00E941D
:1018C00074050730110521F085E791E00E94A2051B
:1018D0000F5F1F4F0830110541F785E591E00E9429
:1018E000A20585E491E00E94230580E491E00E9436
:1018F000230527CF4AE00E943005E3CF0E949E08CF
:1019000022CFCE0101960E94EA070F8318860D812F
:101910001E810F5F1F4FB801CE0101960E946D0717
:101920008823C9F029813A818D819E81BE01695F3A
:101930007F4F820F931F0E94F0151E830D83BE01FF
:101940006F5F7F4F8CE393E00E94D307CE01019637
:101950000E949908BDCECE0101960E94A007EFCF4C
:101960000E943F0181110C945A0B08951F920F920F
:101970000FB60F9211242F933F934F935F936F9362
:101980007F938F939F93AF93BF93EF93FF9381E2E6
:1019900092E00E944901FF91EF91BF91AF919F9119
:1019A0008F917F916F915F914F913F912F910F9008
:1019B0000FBE0F901F9018951F920F920FB60F92A7
:1019C00011242F938F939F93EF93FF93E091310214
:1019D000F09132028081E0913702F091380282FD6D
:1019E0001BC0908180913A028F5F8F7720913B02DC
:1019F000821741F0E0913A02F0E0EF5DFD4F958FE4
:101A000080933A02FF91EF919F918F912F910F90C8
:101A10000FBE0F901F9018958081F4CF1F920F92E8
:101A20000FB60F9211242F933F938F939F93AF93F1
:101A3000BF938091C5019091C601A091C701B0915B
:101A4000C8013091C40123E0230F2D3758F50196CA
:101A5000A11DB11D2093C4018093C5019093C601BF
:101A6000A093C701B093C8018091C9019091CA01A8
:101A7000A091CB01B091CC010196A11DB11D809325
:101A8000C9019093CA01A093CB01B093CC01BF913F
:101A9000AF919F918F913F912F910F900FBE0F901B
:101AA0001F90189526E8230F0296A11DB11DD2CFD5
:101AB0001F920F920FB60F9211248F929F92AF92A6
:101AC000BF92CF92DF92EF92FF920F931F932F93CB
:101AD0003F934F935F936F937F938F939F93AF93B6
:101AE000BF93CF93DF93EF93FF93D6B1DF70C09195
:101AF000CD01CD270E94EA0220E0AD2FB0E0CC233B
:101B0000F1F14C2F50E0C0FF14C034E0239F80015E
:101B10001124FD01022E02C0F595E7950A94E2F723
:101B2000E0FF16C0F801EC54FE4F6083718382839E
:101B3000938355954795C42F2F5F4091EA015091AB
:101B4000EB014F5F5F4F5093EB014093EA01D7CF1A
:101B5000F801EC54FE4F80809180A280B3806B012D
:101B60007C01C818D908EA08FB0846015701F801AA
:101B7000E652FE4F80829182A282B382DACFD09366
:101B8000CD01FF91EF91DF91CF91BF91AF919F91E7
:101B90008F917F916F915F914F913F912F911F9105
:101BA0000F91FF90EF90DF90CF90BF90AF909F90FC
:101BB0008F900F900FBE0F901F901895E1E2F2E00A
:101BC0001382128288EE93E0A0E0B0E084839583D4
:101BD000A683B78382E391E09183808385EC90E0D4
:101BE0009587848784EC90E09787868780EC90E0E7
:101BF000918B808B81EC90E0938B828B82EC90E0D8
:101C0000958B848B86EC90E0978B868B118E128E51
:101C1000138E148E67E771E08EE493E00E94F5075F
:101C200061E971E088E493E00E94F50761EA71E000
:101C300082E493E00E94F50762E471E08CE393E0B4
:101C40000E94F507EDE1F3E083E090E0918380836B
:101C500089E090E093838283EEEFF2E08AE090E007
:101C6000918380838BE090E0938382830895CF9368
:101C7000DF9300D000D0CDB7DEB7789484B5826012
:101C800084BD84B5816084BD85B5826085BD85B520
:101C9000816085BD80916E00816080936E0010929E
:101CA0008100809181008260809381008091810019
:101CB00081608093810080918000816080938000AA
:101CC0008091B10084608093B1008091B000816008
:101CD0008093B00080917A00846080937A00809134
:101CE0007A00826080937A0080917A00816080938C
:101CF0007A0080917A00806880937A001092C10007
:101D000080918100887F8160809381008091B10003
:101D1000887F81608093B10006E211E01A83098315
:101D200061E0E981FA818191FA83E9830E943F02AF
:101D300009811A810E52114099F70E9442030E94B4
:101D40005103E0913102F091320282E08083E09110
:101D50002D02F0912E021082E0912F02F0913002BC
:101D60008FEC808310923902E0913502F0913602B7
:101D700086E08083E0913302F091340280818061BB
:101D80008083E0913302F091340280818860808307
:101D9000E0913302F0913402808180688083E09189
:101DA0003302F091340280818F7D80830E94D005C0
:101DB0001092EC011092CD0162E08EE00E943F0291
:101DC00062E08FE00E943F0262E080E10E943F02F9
:101DD00062E081E10E943F0280916C008F608093FD
:101DE0006C00D99A809168008260809368008EEFC1
:101DF00092E00E94E7048DE193E00E94E7048EEFF9
:101E000092E00E9473038DE193E00E94730362E00D
:101E100082E10E943F0262E083E10E943F0260E0B3
:101E200084E10E943F0260E085E10E943F0210923F
:101E3000CF011092CE0184E10E94D8028115924018
:101E400034F48BE090E09093CF018093CE0185E154
:101E50000E94D8028115924034F485E190E090937D
:101E6000CF018093CE0185E10E94D8029C838B83B1
:101E700084E10E94D8020B811C81011512404CF4B0
:101E80008115924034F487E190E09093CF018093E4
:101E9000CE0102EF11E01C821B828B819C810E948B
:101EA0002E13F80181938F012B813C812F5F3F4FCF
:101EB0003C832B832F32310581F78091F201909181
:101EC000F301A091F401B091F50185319D4CAB4532
:101ED000B74009F472C085E19DECABE5B7E08093B3
:101EE000F2019093F301A093F401B093F50181E026
:101EF0008093F6018BE08093F7018CED95E0909351
:101F0000F9018093F80140ED57E05093FD014093B3
:101F1000FC0128EE33E03093FB012093FA0190930B
:101F2000FF018093FE01509303024093020230931D
:101F300001022093000222E32093040224E620936E
:101F400005022093060220930702209308021092B4
:101F5000090210920A0210920B0210920C021092C7
:101F60000D0210920E0210920F0210921002909326
:101F700012028093110290931402809313029093A3
:101F80001602809315029093180280931702909383
:101F90001A028093190290931C0280931B02909363
:101FA0001E0280931D029093200280931F028BE2F9
:101FB00091E00E94B9050E94020580E491E00E9430
:101FC000230513E0412E512C612C712C22242394E3
:101FD000312C8091EC0181115EC28091EA019091D7
:101FE000EB01892B09F4B3C0F8941092EB01109225
:101FF000EA018091DA019091DB01A091DC01B091BE
:10200000DD018093080190930901A0930A01B09328
:102010000B018091DE019091DF01A091E001B09170
:10202000E10180930C0190930D01A0930E01B093F8
:102030000F018091E2019091E301A091E401B09140
:10204000E5018093100190931101A0931201B093C8
:1020500013018091E6019091E701A091E801B09110
:10206000E9018093140190931501A0931601B09398
:102070001701789480911401909115019C01225EC2
:102080003F4F4E97E1E1F2E01C821B82419151915A
:102090004217530724F4841795070CF471C20B817F
:1020A0001C810F5F1F4F1C830B830830110571F7D4
:1020B0001092D9011092D8014AC0B9E0CB2EB2E0FB
:1020C000DB2E10E000E0F60181916F0181110DC05F
:1020D000F801EA5DFE4F80812B813C8160E00217B0
:1020E000130709F461E00E94F301F6013197908033
:1020F00031E0931226C08091D8019091D901892BAB
:1021000001F54B815C8104171507D9F43092D90190
:102110002092D801C80180539E4F5C01FC01808150
:10212000813079F560E0F801EA5DFE4F80810E9420
:10213000F30164E170E080E090E00E940F03F5019C
:1021400010820F5F1F4F0830110509F0BCCF80913E
:10215000CE019091CF01009711F48091F701873162
:1021600009F49DC000F58B30C9F118F0853108F0F5
:1021700063C00E943F01882309F42BCF0E945A0BB1
:1021800028CF8111DECF61E0F801EA5DFE4F80814A
:102190000E94F30164E170E080E090E00E940F0390
:1021A000F5019082CECF803209F4C7C068F48F3138
:1021B00001F78EEF92E00E9473038DE193E00E949D
:1021C00073030E945103D5CF893209F4E6C08B35E1
:1021D00081F68EEF92E00E94730329C060910401A2
:1021E000709105018091060190910701660F771F9C
:1021F000881F991F009108011091090120910A017F
:1022000030910B01600F711F821F931FA301920178
:102210000E94A51320930401309305014093060109
:102220005093070161E08EEF92E00E9480038DE100
:1022300093E00E9473039DCF6091040170910501AA
:102240008091060190910701660F771F881F991FE3
:10225000009108011091090120910A0130910B01B0
:10226000600F711F821F931FA30192010E94A5138B
:1022700049015A018092040190920501A092060141
:10228000B092070161E08EEF92E00E948003A50109
:10229000940162E08DE193E00E9480036ACF609137
:1022A0000401709105018091060190910701660F6C
:1022B000771F881F991F0091080110910901209133
:1022C0000A0130910B01600F711F821F931FA30140
:1022D00092010E94A51320930401309305014093BD
:1022E00006015093070161E08EEF92E00E948003A7
:1022F00060910001709101018091020190910301B0
:10230000660F771F881F991F00910C0110910D0116
:1023100020910E0130910F01600F711F821F931FDA
:10232000A30192010E94A5132093000130930101A3
:102330004093020150930301ACCF8EEF92E00E94D4
:1023400073038DE193E00E94730305E010E01C83AA
:102350000B8306E211E061E0F80181918F010E9498
:10236000F30129813A8120173107A9F764EF71E061
:1023700080E090E00E940F030E94420364EF71E04E
:1023800080E090E00E940F030B811C810150110935
:102390001C830B83012BE9F6ECCE8EEF92E00E94BA
:1023A00073038DE193E00E94730362E370E080E0C9
:1023B00090E00E940F038090E6019090E701A090CA
:1023C000E801B090E90162E370E080E090E00E94F3
:1023D0000F031C821B827501640112E3C11AD1082C
:1023E000E108F10822E3820E911CA11CB11C80912E
:1023F000E6019091E701A091E801B091E9018C1507
:102400009D05AE05BF0510F18091E6019091E701B1
:10241000A091E801B091E90188169906AA06BB06C9
:10242000A8F00B811C81015011091C830B830B81C7
:102430001C810F5F1F4F1C830B8308301105B9F6F9
:102440001BE51093F7010E94020593CE8091E601EF
:102450009091E701A091E801B091E901EB81FC8145
:10246000EE0FFF1FEE50FE4F90A3878F64E170E0E8
:1024700080E090E00E940F0361E0EB81FC81EA5D67
:10248000FE4F80810E94F30168EE73E080E090E0EF
:102490000E940F03CCCF60911C0170911D018091AF
:1024A0001E0190911F01660F771F881F991F2091B1
:1024B000ED013091EE01620F731F811D911DA3018B
:1024C00092010E94A51369017A01C0921C01D09269
:1024D0001D01E0921E01F0921F01409118015091E0
:1024E000190160911A0170911B01440F551F661F5D
:1024F000771F8091EF019091F0018A019B01080FF5
:10250000191F211D311DC901B801A30192010E94AB
:10251000A51349015A018092180190921901A092C5
:102520001A01B0921B01A701960161E08EEF92E0C3
:102530000E948003A501940162E08DE193E00E9476
:10254000800306E211E01C821B82F80181918F0159
:102550002091F10130E00B8002C0359527950A9457
:10256000E2F761E020FF60E00E94F3012B813C81F3
:102570002F5F3F4F3C832B832830310531F7F9CD56
:102580008091100190911101A0911201B09113015D
:10259000863D9640A105B10508F48FCD8AEA91E009
:1025A0000E94A2056B817C816F5F7F4F072E000C1C
:1025B000880B990B4AE00E94300580E491E00E946C
:1025C0002305C5CD8CE393E00E94990882E493E053
:1025D0000E94990888E493E00E9499088EE493E0B1
:1025E0000C9499081F93FC0199278827BC01E89453
:1025F00011911032E9F3193010F01E30C8F31B327C
:1026000051F01D3249F4689406C00E941913610FFD
:10261000711D811D911D119110531A30B0F33EF4BC
:1026200090958095709561957F4F8F4F9F4F1F912B
:102630000895592F482F372F262F660F771F881F91
:10264000991F660F771F881F991F620F731F841FC2
:10265000951F660F771F881F991F0895F999FECF60
:1026600092BD81BDF89A992780B50895262FF999D2
:10267000FECF1FBA92BD81BD20BD0FB6F894FA9A65
:10268000F99A0FBE01960895052E97FB1EF400944B
:102690000E945B1357FD07D00E94A51307FC03D0CF
:1026A0004EF40C945B1350954095309521953F4F17
:1026B0004F4F5F4F089590958095709561957F4F2E
:1026C0008F4F9F4F08950E94C713A59F900DB49FF1
:1026D000900DA49F800D911D112408952F923F927B
:1026E0004F925F926F927F928F929F92AF92BF9222
:1026F000CF92DF92EF92FF920F931F93CF93DF93CE
:10270000CDB7DEB7CA1BDB0B0FB6F894DEBF0FBE2A
:10271000CDBF09942A88398848885F846E847D8477
:102720008C849B84AA84B984C884DF80EE80FD8079
:102730000C811B81AA81B981CE0FD11D0FB6F894EF
:10274000DEBF0FBECDBFED010895A1E21A2EAA1B78
:10275000BB1BFD010DC0AA1FBB1FEE1FFF1FA21751
:10276000B307E407F50720F0A21BB30BE40BF50B4E
:10277000661F771F881F991F1A9469F760957095D7
:10278000809590959B01AC01BD01CF010895A29F5A
:10279000B001B39FC001A39F700D811D1124911D35
:1027A000B29F700D811D1124911D0895DB018F933F
:1027B0009F930E946313BF91AF91A29F800D911DC3
:1027C000A39F900DB29F900D112408950E94C713EE
:1027D000B7FF0895821B930B0895EE0FFF1F05901E
:1027E000F491E02D09940F931F93CF93DF938230E0
:1027F000910510F482E090E0E0915603F0915703C8
:1028000030E020E0B0E0A0E0309799F421153105E8
:1028100009F44AC0281B390B24303105D8F58A81C8
:102820009B816115710589F1FB0193838283FE0110
:1028300011C0408151810281138148175907E0F08E
:102840004817590799F4109761F012960C93129754
:1028500013961C933296CF01DF91CF911F910F9168
:1028600008950093560310935703F4CF21153105B3
:1028700051F04217530738F0A901DB019A01BD015D
:10288000DF01F801C1CFEF01F9CF90935703809397
:102890005603CDCFFE01E20FF31F81939193225097
:1028A000310939832883D7CF2091540330915503C0
:1028B000232B41F4209122013091230130935503C1
:1028C00020935403209120013091210121153105DD
:1028D00041F42DB73EB74091240150912501241BAE
:1028E000350BE0915403F0915503E217F307A0F480
:1028F0002E1B3F0B2817390778F0AC014E5F5F4F56
:102900002417350748F04E0F5F1F5093550340932F
:102910005403819391939FCFF0E0E0E09CCFCF935D
:10292000DF930097E9F0FC01329713821282A091A5
:102930005603B0915703ED0130E020E01097A1F469
:1029400020813181820F931F2091540330915503D0
:102950002817390709F061C0F0935503E093540339
:10296000DF91CF910895EA01CE17DF07E8F54A819C
:102970005B819E0141155105B1F7E901FB83EA83B3
:1029800049915991C40FD51FEC17FD0761F480815F
:1029900091810296840F951FE90199838883828132
:1029A00093819B838A83F0E0E0E012968D919C9165
:1029B00013970097B9F52D913C911197CD0102968F
:1029C000820F931F20915403309155032817390724
:1029D00039F6309751F51092570310925603B09381
:1029E0005503A0935403BCCFD383C283408151814C
:1029F000840F951FC817D90761F44E5F5F4F888118
:102A00009981480F591F518340838A819B81938309
:102A100082832115310509F0B0CFF0935703E0937D
:102A200056039ECFFD01DC01C0CF13821282D7CFA7
:102A3000B0E0A0E0EEE1F5E10C9470138C0100979A
:102A400051F4CB010E94F3138C01C801CDB7DEB75E
:102A5000E0E10C948C13FC01E60FF71F9C0122505F
:102A60003109E217F30708F49DC0D901CD91DC913B
:102A70001197C617D70798F0C530D10530F3CE01AE
:102A800004978617970708F3C61BD70B2297C193A5
:102A9000D1936D937C93CF010E948F14D6CF5B01AD
:102AA000AC1ABD0A4C018C0E9D1EA0915603B0912C
:102AB0005703512C412CF12CE12C109731F58091CA
:102AC0005403909155038815990509F05CC046168A
:102AD000570608F058C0809120019091210100977D
:102AE00041F48DB79EB74091240150912501841B7C
:102AF000950BE817F90708F055C0F0935503E093DC
:102B00005403F90171836083A0CF8D919C9111973B
:102B100012966C90129713967C901397A815B9058E
:102B200059F56C0142E0C40ED11CCA14DB0420F13B
:102B3000AC014A195B09DA011296159780F062829E
:102B4000738251834083D9016D937C93E114F10426
:102B500071F0D7011396FC93EE93129776CF2296DD
:102B60008C0F9D1FF90191838083F301EFCFF093C8
:102B70005703E093560369CF4816590608F42C0111
:102B80007D01D3019ACFCB010E94F3137C01009702
:102B900049F0AE01B8010E94D515C8010E948F14FA
:102BA000870153CF10E000E050CFFB01DC0102C0F1
:102BB00001900D9241505040D8F708956817790759
:102BC00068F4FB01DC01E40FF51FA40FB51F02C080
:102BD00002900E9241505040D8F708950C94D515AC
:102BE000FB01DC0101900D920020E1F70895FB014B
:102BF000DC014150504048F001900D920020C9F78F
:102C000001C01D9241505040E0F70895FB015191E1
:102C10005523A9F0BF01DC014D9145174111E1F7A2
:102C200059F4CD010190002049F04D91401541111A
:102C3000C9F3FB014111EFCF81E090E001970895C6
:102C400010E0CAEAD0E004C0FE010E94ED13219614
:0A2C5000CB3AD107C9F7F894FFCF83
:102C5A00DC050000DC050000DC050000DC050000E6
:102C6A00DC050000DC050000DC050000DC050000D6
:102C7A000000580380000C08070605040D02000036
:102C8A0000006B01D5000201D301330111012501B6
:102C9A000D0A003C003E00436D64456E7200436DB0
:102CAA0064566572002900436D6453696D00434F91
:102CBA004E4E454354454400436D644366670043A2
:102CCA0066673D28002C00566172696174657572E9
:102CDA002049425434202B205243204164646F6EB1
:102CEA000056657273696F6E20332E30312042545C
:102CFA000031362F30312F3230004D6F72636561EB
:042D0A00753A2000F6
:107800000C94343C0C94513C0C94513C0C94513CE1
:107810000C94513C0C94513C0C94513C0C94513CB4
:107820000C94513C0C94513C0C94513C0C94513CA4
:107830000C94513C0C94513C0C94513C0C94513C94
:107840000C94513C0C94513C0C94513C0C94513C84
:107850000C94513C0C94513C0C94513C0C94513C74
:107860000C94513C0C94513C11241FBECFEFD8E036
:10787000DEBFCDBF11E0A0E0B1E0E0EBFDE702C06C
:1078800005900D92A230B107D9F722E0A2E0B1E055
:1078900001C01D92AD30B207E1F70E94043D0C9487
:1078A000D63E0C94003C9091C00095FFFCCF809395
:1078B000C6000895CF93C82F8595859585958595A4
:1078C000805DCF70CA303CF0C95A0E94533C8C2F67
:1078D000CF910C94533CC05DF8CFCF92DF92EF92E2
:1078E000FF92C12CD12C76018091C00087FF07C088
:1078F0008091C600FF90EF90DF90CF9008958FEFBA
:10790000C81AD80AE80AF80A81E4C81682E4D80638
:107910008FE0E806F10440F3E0910201F0910301E9
:107920000995E2CFCF930E946D3CC82F0E94533C33
:10793000C13624F0C7558C2FCF910895C033DCF3A6
:10794000C053F9CFCF930E94923CC82F0E94923C23
:10795000C295C07F8C0FCF910895CF93C82FC1508F
:1079600010F4CF9108950E946D3CF9CFCF93C82FAA
:107970000E946D3C803251F484E10E94533C8C2F74
:107980000E94533C80E1CF910C94533C80910401C0
:107990008F5F80930401853031F4E0910201F09112
:1079A0000301CF910994CF9108950E946D3C8032DC
:1079B00031F484E10E94533C80E10C94533C80916B
:1079C00004018F5F80930401853029F4E091020166
:1079D000F091030109940895815008F408952D9AB7
:1079E0002FEF31EE94E0215030409040E1F700C09D
:1079F00000002D982FEF31EE94E021503040904060
:107A0000E1F700C00000E8CF0000F0E0E0E0E49122
:107A100080E18093C4001092C50088E18093C1008A
:107A200086E08093C2005098589A259A80E00E9480
:107A3000EC3CFF24F3940E946D3C803319F40E94C7
:107A4000D53CF9CF8133F1F40E946D3C803209F0CE
:107A50009FC184E10E94533C81E40E94533C86E52F
:107A60000E94533C82E50E94533C80E20E94533CBA
:107A700089E40E94533C83E50E94533C80E50E94C8
:107A8000533C4CC1803439F40E946D3C8638B8F2C6
:107A90000E946D3CD4CF8134A1F40E946D3C8038AB
:107AA00021F482E00E94B63CC6CF813811F481E017
:107AB000F9CF823811F480E1F5CF8839B9F583E048
:107AC000F1CF823421F484E10E94AD3CB8CF8534FB
:107AD00011F485E0F9CF982F9D7F903509F4AFCF51
:107AE000813509F4ACCF853549F40E946D3C809313
:107AF00006010E946D3C80930701A1CF8635C1F439
:107B00000E946D3C803379F40E946D3C0E946D3C74
:107B1000182F0E946D3C8EE1112321F285E911306E
:107B200009F28FE0BFCF83E00E94AD3C80E0BACF86
:107B3000843609F0C4C00E946D3C809309020E9403
:107B40006D3C8093080280910C028E7F80930C0222
:107B50000E946D3C853429F480910C0281608093F1
:107B60000C0208E011E02091080230910902C801DE
:107B7000885091408217930708F10E946D3C803233
:107B800009F006C12091060130910701220F331F31
:107B900080910C0280FF2EC03093070120930601D4
:107BA000E8E0F1E02091080230910902CF0188500D
:107BB00091408217930740F084E161CF0E946D3CB1
:107BC000F80181938F01CFCFF999FECF8091060103
:107BD0009091070192BD81BD819180BDFA9AF99A79
:107BE000809106019091070101969093070180937F
:107BF0000601D8CF80910701880F880B8F218093D1
:107C00000B0230930701209306018091080280FF48
:107C100009C080910802909109020196909309028F
:107C200080930802F894F999FECF1127E09106019C
:107C3000F0910701C8E0D1E080910802909109021B
:107C4000103091F40091570001700130D9F303E036
:107C500000935700E8950091570001700130D9F367
:107C600001E100935700E8950990199000915700A1
:107C700001700130D9F301E000935700E8951395A6
:107C8000103498F011270091570001700130D9F39A
:107C900005E000935700E89500915700017001300E
:107CA000D9F301E100935700E8953296029709F065
:107CB000C7CF103011F00296E5CF11247DCF843765
:107CC00009F052C00E946D3C809309020E946D3CF5
:107CD000809308028091060190910701880F991FF7
:107CE00090930701809306010E946D3C90910C02D5
:107CF0008534C1F4916090930C020E946D3C8032F7
:107D000009F099CE84E10E94533C10E000E080919C
:107D10000802909109020817190730F080E10E94CB
:107D2000533C89CE9E7FE7CF80910C02E091060103
:107D3000F091070180FF14C0F999FECFF2BDE1BDBB
:107D4000F89A80B50E94533C8091060190910701FA
:107D5000019690930701809306010F5F1F4FD7CFC5
:107D600081FDF2CF8491EECF853779F40E946D3C8E
:107D7000803271F484E10E94533C8EE10E94533CB6
:107D800085E90E94533C8FE07ACE863709F4CECE47
:107D9000809104018F5F80930401853009F04BCE00
:107DA000E0910201F0910301099545CEF894FFCFCF
:027DB000800051
:040000030000780081
:00000001FF
