:100000000C949D000C94C5000C94C5000C94C50084
:100010000C947B0D0C94C5000C94C5000C94C50089
:100020000C94C5000C94C5000C94C5000C94C5003C
:100030000C94C5000C94C5000C94C5000C94C5002C
:100040000C94310D0C94C5000C94FF0C0C94D90C3D
:100050000C94C5000C94C5000C94C5000C94C5000C
:100060000C94C5000C94C5003C436F6E6E657869B6
:100070006F6E204F4B3E003C53696D756C6174652B
:100080007572204F4B20213E003C4E6F7576656C9B
:100090006C6520636F6E66696775726174696F6EF7
:1000A000204348415247454D454E54204F4B202157
:1000B0003E003C4E6F7576656C6C6520636F6E66B6
:1000C000696775726174696F6E2053415556454773
:1000D00041524445204F4B20213E000000000024A7
:1000E0000027002A0000000000250028002B000047
:1000F0000000002300260029000404040404040472
:1001000004020202020202030303030303010204C6
:100110000810204080010204081020010204081089
:100120002000000008000201000003040700000096
:10013000000000000000010E401311241FBECFEF8D
:10014000D8E0DEBFCDBF11E0A0E0B1E0E6E1FDE226
:1001500002C005900D92A03BB107D9F723E0A0EBB8
:10016000B1E001C01D92A631B207E1F710E0CCE981
:10017000D0E004C02197FE010E944B14CB39D10777
:10018000C9F70E94620E0C947E160C940000AF9288
:10019000BF92CF92DF92EF92FF920F931F93CF9374
:1001A000DF936C017B018B01040F151FEB015E01D6
:1001B000AE18BF08C017D10759F06991D601ED916B
:1001C000FC910190F081E02DC6010995892B79F70A
:1001D000C501DF91CF911F910F91FF90EF90DF90BC
:1001E000CF90BF90AF900895FC01538D448D252F83
:1001F00030E0842F90E0821B930B541710F0CF96C1
:10020000089501970895FC01918D828D981761F0F2
:10021000A28DAE0FBF2FB11D5D968C91928D9F5F09
:100220009F73928F90E008958FEF9FEF0895FC01E8
:10023000918D828D981731F0828DE80FF11D858D9B
:1002400090E008958FEF9FEF0895FC01918D228D2E
:10025000892F90E0805C9F4F821B91098F739927B3
:10026000089587E192E00E94250121E0892B09F49D
:1002700020E0822F0895FC01A48DA80FB92FB11D95
:10028000A35ABF4F2C91848D90E001968F739927CC
:10029000848FA689B7892C93A089B1898C918370AA
:1002A00080648C93938D848D981306C00288F389A3
:1002B000E02D80818F7D80830895EF92FF920F93D0
:1002C0001F93CF93DF93EC0181E0888F9B8D8C8D02
:1002D00098131AC0E889F989808185FF15C09FB7F6
:1002E000F894EE89FF896083E889F98980818370B9
:1002F000806480839FBF81E090E0DF91CF911F9168
:100300000F91FF90EF900895F62E0B8D10E00F5F88
:100310001F4F0F731127E02E8C8D8E110CC00FB65E
:1003200007FCFACFE889F989808185FFF5CFCE01F6
:100330000E943B01F1CFEB8DEC0FFD2FF11DE35A35
:10034000FF4FF0829FB7F8940B8FEA89FB89808179
:100350008062CFCF0F931F93CF93DF938C01D0E0B8
:10036000C0E0F801EC0FFD1F6491662341F087E1C6
:1003700092E00E945D01892B11F02196F2CFCE010F
:10038000DF91CF911F910F910895CF93DF93EC01EF
:10039000888D8823B9F0AA89BB89E889F9898C916D
:1003A00085FD03C0808186FD0DC00FB607FCF7CF29
:1003B0008C9185FFF2CF808185FFEDCFCE010E9429
:1003C0003B01E9CFDF91CF910895833081F028F48C
:1003D000813099F08230A9F008958730A9F08830F3
:1003E000C9F08430B1F4809180008F7D03C080918A
:1003F00080008F7780938000089584B58F7784BDC7
:10040000089584B58F7DFBCF8091B0008F77809366
:10041000B00008958091B0008F7DF9CF1F93CF93E6
:10042000DF93282F30E0F901EF5DFE4F8491F90151
:10043000E35FFE4FD491F901E750FF4FC491CC2305
:10044000A9F0162F81110E94E501EC2FF0E0EE0FCC
:10045000FF1FEB51FF4FA591B4918FB7F894EC912A
:10046000111108C0D095DE23DC938FBFDF91CF91AF
:100470001F910895DE2BF8CFCF93DF9390E0FC011E
:10048000E35FFE4F249187509F4FFC0184918823A6
:10049000C9F090E0880F991FFC01E552FF4FA5912C
:1004A000B491FC01EB51FF4FC591D49161110DC086
:1004B0009FB7F8948C91209582238C938881282370
:1004C00028839FBFDF91CF910895623051F49FB789
:1004D000F8943C91822F809583238C93E8812E2B76
:1004E000EFCF8FB7F894EC912E2B2C938FBFEACFE0
:1004F0001F93CF93DF93182FEB0161E00E943C0222
:10050000209739F460E0812FDF91CF911F910C94F7
:100510000E02CF3FD10511F461E0F5CFE12FF0E0FD
:10052000EF5DFE4FE491E33031F140F4E130B1F0A2
:10053000E230E1F0C038D1057CF7E4CFE73029F1B3
:10054000E83059F1E430B1F7809180008062809307
:100550008000D0938B00C0938A0004C084B580686B
:1005600084BDC7BDDF91CF911F91089584B580628E
:1005700084BDC8BDF7CF80918000806880938000E3
:10058000D0938900C0938800EDCF8091B00080683F
:100590008093B000C093B300E5CF8091B00080623B
:1005A0008093B000C093B400DDCF8E508064809300
:1005B0007C0080917A00806480937A0080917A0038
:1005C00086FDFCCF809178009091790008953FB727
:1005D000F8948091C7019091C801A091C901B09190
:1005E000CA0126B5A89B05C02F3F19F00196A11D91
:1005F000B11D3FBFBA2FA92F982F8827BC01CD016D
:10060000620F711D811D911D42E0660F771F881FCB
:10061000991F4A95D1F708958F929F92AF92BF92FA
:10062000CF92DF92EF92FF926B017C010E94E70272
:100630004B015C01C114D104E104F104B9F00E9442
:10064000E702681979098A099B09683E73408105A8
:10065000910580F321E0C21AD108E108F10888EE83
:10066000880E83E0981EA11CB11CE4CFFF90EF9090
:10067000DF90CF90BF90AF909F908F900895CF93D1
:10068000DF93C6E2D1E060E089910E940E0281E032
:10069000CE32D807C1F7DF91CF910895CF93DF9382
:1006A000C6E2D1E061E089910E940E0264E670E04A
:1006B00080E090E00E940C0381E0CE32D80791F7F1
:1006C00064E670E080E090E00E940C030E943F032B
:1006D00064E670E080E090E0DF91CF910C940C0331
:1006E0000F931F93E8EEF1E046815781828990E0F5
:1006F000A4EBB2E08A01080F191F30E020E01D963C
:100700000D931D932D933C935097481B590B70E00C
:1007100060E019964D935D936D937C931C97428591
:10072000538570E060E055964D935D936D937C9397
:1007300058974085518570E060E051964D935D93E8
:100740006D937C935497438950E070E060E05D9630
:100750004D935D936D937C939097448950E070E046
:1007600060E059964D935D936D937C935C974485BF
:100770005585A7EDB2E08C01040F151F30E020E095
:100780001D960D931D932D933C935097481B590B29
:1007900070E060E019964D935D936D937C931C9788
:1007A0004089518970E060E055964D935D936D935B
:1007B0007C9358974685578570E060E051964D933D
:1007C0005D936D937C935497458950E070E060E0B1
:1007D0005D964D935D936D937C939097468950E021
:1007E00070E060E059964D935D936D937C935C97B8
:1007F0001F910F910895CF93DF93EC0160E0888102
:100800000E940E0260E08A810E940E0260E08C81EC
:10081000DF91CF910C940E024F925F926F927F9274
:100820008F929F92AF92BF92CF92DF92EF92FF9200
:10083000CF93DF93EC01C984DA84EB84FC848D844C
:100840009E84AF84B888C416D506E606F706D8F4A9
:10085000481559056A057B05B0F40E94FB0364E165
:1008600070E080E090E0DF91CF91FF90EF90DF901B
:10087000CF90BF90AF909F908F907F906F905F9040
:100880004F900C940C0384169506A606B70608F044
:1008900047C09A01AB01281939094A095B096D8DD6
:1008A0007E8D8F8D98A10E9434142D893E894F89A9
:1008B000588D281939094A095B090E94A213253667
:1008C000310514F024E630E037FF02C030E020E0CC
:1008D0008885882331F08E819F818217930709F4E0
:1008E000BECF81E088873F832E8360E08A810E94AB
:1008F0000E026FE070E080E090E00E940C03AE8199
:10090000BF812CEF30E00E94441424E630E040E048
:1009100050E00E94A213B90188810E9478029FCF03
:100920004C155D056E057F0508F099CF898C9A8C72
:10093000AB8CBC8C49885A886B887C88D301C201F7
:10094000841B950BA60BB70B9C01AD01C501B4012F
:100950000E943414A7019601241935094609570944
:100960000E94A213280D391D4A1D5B1D2536310535
:1009700014F024E630E037FF02C030E020E0888544
:10098000811106C08E819F818217930709F467CF7A
:1009900018863F832E8360E088810E940E026FE0FC
:1009A00070E080E090E00E940C03AE81BF812CEFEC
:1009B00030E00E94441424E630E040E050E00E9421
:1009C000A213B9018A81A9CFCF93DF93EC0161E033
:1009D00088810E943C0261E08A810E943C0261E0C1
:1009E0008C810E943C0260E088810E940E0260E0DF
:1009F0008A810E940E0260E08C810E940E0264E6F1
:100A000070E080E090E0DF91CF910C940C03FF92B6
:100A10000F931F93CF93DF9308EE11E0D0E0C0E077
:100A2000F801F1908F01CE010E948C13F81621F08D
:100A30006F2DCE010E9494132196CF32D10581F7FC
:100A400088EE91E0DF91CF911F910F91FF90089573
:100A5000FC0101900020E9F73197AF01481B590BC9
:100A6000BC0187E192E00C94C700CF93DF93FC01B7
:100A7000448155816081718187E192E00E94C700C5
:100A8000EC0180E491E00E9428058C0F9D1FDF910E
:100A9000CF9108958F929F92AF92BF920F931F9321
:100AA000CF93DF93CDB7DEB7A1970FB6F894DEBF33
:100AB0000FBECDBF19A2423008F44AE08E010F5D8F
:100AC0001F4F842E912CB12CA12CA50194010E94C2
:100AD0000314E62FB901CA01EA30F4F4E05DD8014D
:100AE000EE938D01232B242B252B79F790E080E0CA
:100AF000109719F0CD010E942805A1960FB6F89421
:100B0000DEBF0FBECDBFDF91CF911F910F91BF9080
:100B1000AF909F908F900895E95CE1CFCF92DF92E4
:100B2000EF92FF92CF93DF936B017C016DE287E13F
:100B300092E00E945D01EC0166277727CB016C19DA
:100B40007D098E099F094AE00E944A058C0F9D1F6E
:100B5000DF91CF91FF90EF90DF90CF900895682FB5
:100B600070E090E080E04AE00C944A05BC0190E01F
:100B700080E04AE00C944A050C942805CF93DF935B
:100B80000E94AA01EC0180E491E00E9428058C0FEC
:100B90009D1FDF91CF91089567E187E192E00E9468
:100BA0005D0180E491E00C94280583E491E00E94CB
:100BB000BC058CE093E00E94350586E093E00E943E
:100BC0003505E0E0F3E0448155816081718187E182
:100BD00092E00E94C70085E491E00E94280580E42D
:100BE00091E00C942805CF93DF932091FE02309181
:100BF000FF02232B89F0FC01C091FA02D091FB0285
:100C000060817181CE010E946416009729F08C1BCF
:100C10009D0BDF91CF9108958FEF9FEFFACF409119
:100C2000FE025091FF0241155105F1F0BA018417FF
:100C3000950708F4BC018091FA029091FB02461BD3
:100C4000570B5093FF024093FE02680F791F0E94DA
:100C50005516E091FA02F091FB028091FE0290910C
:100C6000FF02E80FF91F108208952F923F924F92D2
:100C70005F926F927F928F929F92AF92BF92CF922C
:100C8000DF92EF92FF920F931F93CF93DF936090C9
:100C9000FE027090FF026114710409F410C1FC019E
:100CA000848095808114910409F409C18B017C0131
:100CB000FB01C480D580C818D908C091FA02D09130
:100CC000FB02C114D104B9F4F70160817181CE0136
:100CD0000E946416EC01009709F4F1C0F8016081EC
:100CE0007181448155810E943316F8018481958178
:100CF000C80FD91FE9CFD7FC10C0FC01408051803C
:100D00005301CE01B2010E946416009709F44CC051
:100D1000880D991DAC0CBD1CF5CF5E01F7016081FB
:100D20007181CE010E9464163C01009739F14C019B
:100D30008C1A9D0AA401BE01C5010E943316A80C9D
:100D4000B91CF8016081718144815581C5010E94FF
:100D50003316F80184819581A80EB91EF701C4816C
:100D6000D581C60DD71D8091FE029091FF028C0D9A
:100D70009D1D9093FF028093FE02D0CFBE01C5015E
:100D8000DF91CF911F910F91FF90EF90DF90CF9067
:100D9000BF90AF909F908F907F906F905F904F909B
:100DA0003F902F900C944E166A147B0409F487C070
:100DB0008091FC029091FD028A159B0588F4B50193
:100DC0006F5F7F4FCE010E947615009709F477C0C0
:100DD0009093FB028093FA02B092FD02A092FC0273
:100DE000C091FE02D091FF022197D7FD68C04E014D
:100DF000F701448055804114510409F460C0A0906B
:100E0000FE02B090FF02A114B10409F458C0A4146A
:100E1000B50408F454C0CA15DB0520F04501F1E023
:100E20008F1A91086090FA027090FB02C301CFEF15
:100E3000DFEF1301280C391C2816390688F0F7015A
:100E4000608171810E946416009751F09C012619FF
:100E500037098216930608F49E010196E901ECCF4A
:100E6000D7FD2DC04C0E5D1EC301840D951DA5013F
:100E700044195509BC018C0D9D1D0E943C168091A2
:100E8000FE029091FF028C0D9D1D9093FF028093B6
:100E9000FE022091FA023091FB02820F931FFC01A7
:100EA00010828091FA029091FB02F80160817181B9
:100EB000448155818C0F9D1F0E94331695CFDF9181
:100EC000CF911F910F91FF90EF90DF90CF90BF9047
:100ED000AF909F908F907F906F905F904F903F90DA
:100EE0002F9008950F931F93CF93DF93EC01888188
:100EF0009981009759F02A813B812617370730F0F6
:100F000081E0DF91CF911F910F9108958B016F5F69
:100F10007F4F0E947615009759F0998388831B8331
:100F20000A832C813D81232B59F7FC011082E8CFE5
:100F300080E0E7CFFC0180819181009711F00C9453
:100F4000501360E070E0CB010895CF93DF93EC0184
:100F500088819981009711F00E94ED1419821882FE
:100F60001D821C821B821A82DF91CF910895EF921D
:100F7000FF920F931F93CF93DF93EC017B018A01C4
:100F8000BA010E94720781110BC0CE010E94A50711
:100F9000CE01DF91CF911F910F91FF90EF900895B7
:100FA0001D830C83B701888199810E944E16F0CF72
:100FB000CF93DF93EC01FB018617970749F060811F
:100FC00071816115710541F0448155810E94B70717
:100FD000CE01DF91CF9108950E94A507F9CFFC01C2
:100FE0001182108213821282158214826AEF72E0DB
:100FF0000C94D807FC011182108213821282158290
:101000001482FB0101900020E9F73197AF01461BE4
:10101000570B0C94B7078F929F92AF92BF92CF92CB
:10102000DF92EF92FF920F931F93CF93DF93EC0128
:101030008B01FB01C480D580D60111972FEF3FEFC4
:10104000B12CA12C90E080E070E060E0A817B90717
:101050002CF14617570734F1FC0131967F018C15AE
:101060009D0560F4F801808091808114910431F035
:10107000F401E80FF91FE081EC3219F0A817B90765
:1010800059F46F5F7F4F5901FFEFAF1ABF0A970105
:10109000A817B90709F09C01C701D8CF4617570711
:1010A0000CF046C069012A153B0510F06501590195
:1010B00062E471E0CE010E94FA07F801E480F58055
:1010C000CE14DF0418F5AE14BF0408F47501F8015E
:1010D00060817181FB01EE0DFF1DB08010826C0DEF
:1010E0007D1D6115710501F1FB0101900020E9F7FB
:1010F0003197AF01461B570BCE010E94B707F8018D
:1011000080819181E80EF91EF701B082CE01DF9156
:10111000CF911F910F91FF90EF90DF90CF90BF90F4
:10112000AF909F908F900895CE010E94A507E7CFC2
:1011300062E471E0CE010E94FA07E8CFFC018081F1
:101140009181009711F00C94ED140895EF92FF92A5
:101150000F931F93CF93DF93CDB7DEB72C970FB6C6
:10116000F894DEBF0FBECDBF67E471E0CE010196FB
:101170000E94FA07CE0101960E94F3058C01CE0170
:1011800001960E949E0817FD15C00E94070582EB7C
:1011900090E00E94AA010E94CC052C960FB6F8940C
:1011A000DEBF0FBECDBFDF91CF911F910F91FF909A
:1011B000EF9008956EE471E0CE0101960E94FA0767
:1011C000CE0101960E94F3058C01CE0101960E948A
:1011D0009E0817FD03C00E94D505DDCF6BE671E0C8
:1011E000CE0101960E94FA07CE0101960E94F305F6
:1011F0008C01CE0101960E949E08012B09F0C1C10D
:1012000085E090E00E940F0662E471E0CE01019655
:101210000E94FA0765E571E0CE0107960E94FA0781
:10122000BE016F5F7F4FCE0107960E943506CE014B
:1012300007960E949E08CE0101960E949E08CE014C
:1012400007960E94EF0750E040E0BE01695F7F4FC4
:10125000CE0101960E940B08CE0101960E949A07CA
:101260006093ED01CE0101960E949E08CE01079683
:101270000E949E08CE0107960E94EF0741E050E0D1
:10128000BE01695F7F4FCE0101960E940B08CE011F
:1012900001960E949A077093EF016093EE01CE01D0
:1012A00001960E949E08CE0107960E949E08CE01DC
:1012B00007960E94EF0743E050E0BE01695F7F4F51
:1012C000CE0101960E940B08CE0101960E949A075A
:1012D0007093F3016093F201CE0101960E949E0883
:1012E000CE0107960E949E08CE0107960E94EF0746
:1012F00042E050E0BE01695F7F4FCE0101960E943F
:101300000B08CE0101960E949A077093F101609339
:10131000F001CE0101960E949E08CE0107960E9420
:101320009E08CE0107960E94EF0744E050E0BE0100
:10133000695F7F4FCE0101960E940B08CE01019696
:101340000E949A077093F5016093F401CE01019613
:101350000E949E08CE0107960E949E08CE01079625
:101360000E94EF0746E050E0BE01695F7F4FCE016B
:1013700001960E940B08CE0101960E949A07709375
:10138000F9016093F801CE0101960E949E08CE01FA
:1013900007960E949E08CE0107960E94EF0745E03F
:1013A00050E0BE01695F7F4FCE0101960E940B089D
:1013B000CE0101960E949A077093F7016093F6019F
:1013C000CE0101960E949E08CE0107960E949E08BB
:1013D000CE0107960E94EF0747E050E0BE01695F2B
:1013E0007F4FCE0101960E940B08CE0101960E940C
:1013F0009A076093FA01CE0101960E949E08CE01E1
:1014000007960E949E08CE0107960E94EF0748E0CB
:1014100050E0BE01695F7F4FCE0101960E940B082C
:10142000CE0101960E949A076093FB01CE010196BE
:101430000E949E08CE0107960E949E08CE01079644
:101440000E94EF0749E050E0BE01695F7F4FCE0187
:1014500001960E940B08CE0101960E949A076093A4
:10146000FC01CE0101960E949E08CE0107960E94C3
:101470009E08CE0107960E94EF074AE050E0BE01A9
:10148000695F7F4FCE0101960E940B08CE01019645
:101490000E949A076093FD01CE0101960E949E086A
:1014A000CE0107960E949E08CE0107960E94EF0784
:1014B0004BE050E0BE01695F7F4FCE0101960E9474
:1014C0000B08CE0101960E949A076093FE01CE019F
:1014D00001960E949E08CE0107960E949E089FEFEB
:1014E000E92E91E0F92E0CE010E0CE0107960E9463
:1014F000EF07A801BE01695F7F4FCE0101960E94F0
:101500000B08CE0101960E949A07F70161937F01B3
:10151000CE0101960E949E08CE0107960E949E0869
:101520000F5F1F4F0431110501F787E0E82E82E0BD
:10153000F82ECE0107960E94EF07A801BE01695F51
:101540007F4FCE0101960E940B08CE0101960E94AA
:101550009A07F701619371937F01CE0101960E9472
:101560009E08CE0107960E949E080F5F1F4F0C3108
:101570001105F9F60E94700389E890E00E94BE050B
:101580000ACE67E571E0CE0101960E94FA07CE010E
:1015900001960E94F3058C01CE0101960E949E08DF
:1015A00017FDFBCD88E090E00E940F0662E471E039
:1015B000CE0101960E94FA0765E571E0CE0107961B
:1015C0000E94FA07BE016F5F7F4FCE0107960E940F
:1015D0003506CE0107960E949E08CE0101960E9414
:1015E0009E08CE0107960E94EF0750E040E0BE0142
:1015F000695F7F4FCE0101960E940B08CE010196D4
:101600000E949A076093E201CE0101960E949E0813
:10161000CE0107960E949E08CE0107960E94EF0712
:1016200041E050E0BE01695F7F4FCE0101960E940C
:101630000B08CE0101960E949A077093E401609313
:10164000E301CE0101960E949E08CE0107960E94FA
:101650009E08CE0107960E94EF0742E050E0BE01CF
:10166000695F7F4FCE0101960E940B08CE01019663
:101670000E949A077093E6016093E501CE010196FE
:101680000E949E08CE0107960E949E08CE010796F2
:101690000E94EF0743E050E0BE01695F7F4FCE013B
:1016A00001960E940B08CE0101960E949A07609352
:1016B000E701CE0101960E949E08CE0107960E9486
:1016C0009E0887E790E05ACFEF92FF920F931F9307
:1016D000CF93DF93CDB7DEB728970FB6F894DEBF70
:1016E0000FBECDBF87E192E00E94250118161906B2
:1016F0000CF050C087E192E00E9403019093C10179
:101700008093C001BC01990F880B990B97FF4FC0C4
:101710000E948E0580E491E00E9428050091C0019E
:101720001091C1010A30110521F00731110509F0AE
:101730000BC16EE571E0CE0101960E94FA0780911F
:10174000FE029091FF02892BB1F10091FA021091F3
:10175000FB0269817A81C8010E946416009759F1E1
:101760009C01201B310B8901CE0101960E949E082D
:1017700017FD24C088E690E00E94BE050E94D505B2
:101780000E94CC0550E040E062E471E08AEF92E014
:101790000E94B70728960FB6F894DEBF0FBECDBFE4
:1017A000DF91CF911F910F91FF90EF9008954AE044
:1017B0000E944A05AFCF0FEF1FEFD6CF68E671E06A
:1017C000CE0101960E94FA07CE0101960E94F30510
:1017D0008C01CE0101960E949E0817FDB2C083E4E1
:1017E00091E00E94BC058FE691E00E94BC058091CB
:1017F000ED010E94AF0585E791E00E94BC05809154
:10180000EE019091EF010E94B60585E791E00E94FC
:10181000BC058091F0019091F1010E94B60585E729
:1018200091E00E94BC058091F2019091F3010E9429
:10183000B60585E791E00E94BC058091F401909186
:10184000F5010E94B60585E791E00E94BC058091F4
:10185000F6019091F7010E94B60585E791E00E949C
:10186000BC058091F8019091F9010E94B60585E7C9
:1018700091E00E94BC058091FA010E94AF0585E7C6
:1018800091E00E94BC058091FB010E94AF0585E7B5
:1018900091E00E94BC058091FC010E94AF0585E7A4
:1018A00091E00E94BC058091FD010E94AF0585E793
:1018B00091E00E94BC058091FE010E94AF0585E782
:1018C00091E00E94BC050FEF11E0F80181918F01BA
:1018D0000E94AF0585E791E00E94BC05F2E0073069
:1018E0001F0799F787E0E82E82E0F82E10E000E06D
:1018F000F701619171917F01072E000C880B990B04
:1019000097FF1BC00E948E050730110521F085E767
:1019100091E00E94BC050F5F1F4F0830110541F791
:1019200085E591E00E94BC0585E491E00E942805D0
:1019300080E491E00E94280523CF4AE00E944A05F6
:10194000E3CF0E94A6081ECFCE0101960E94EF07AA
:101950000F8318860D811E810F5F1F4FB801CE01C6
:1019600001960E9472078823C9F029813A818D81EE
:101970009E81BE01695F7F4F820F931F0E944E16AA
:101980001E830D83BE016F5F7F4F8AEF92E00E943E
:10199000D807CE0101960E949E08A4CECE010196E2
:1019A0000E94A507EFCF0E94310181110C94640BB6
:1019B00008951F920F920FB60F9211242F933F9309
:1019C0004F935F936F937F938F939F93AF93BF9347
:1019D000EF93FF9387E192E00E943B01FF91EF912B
:1019E000BF91AF919F918F917F916F915F914F9137
:1019F0003F912F910F900FBE0F901F9018951F923F
:101A00000F920FB60F9211242F938F939F93EF9302
:101A1000FF93E0912702F09128028081E0912D024E
:101A2000F0912E0282FD1BC09081809130028F5F69
:101A30008F7320913102821741F0E0913002F0E083
:101A4000E95EFD4F958F80933002FF91EF919F915A
:101A50008F912F910F900FBE0F901F90189580813E
:101A6000F4CF1F920F920FB60F9211242F933F9332
:101A70008F939F93AF93BF938091C3019091C401C3
:101A8000A091C501B091C6013091C20123E0230F9E
:101A90002D3758F50196A11DB11D2093C2018093E9
:101AA000C3019093C401A093C501B093C601809176
:101AB000C7019091C801A091C901B091CA010196D6
:101AC000A11DB11D8093C7019093C801A093C901C6
:101AD000B093CA01BF91AF919F918F913F912F9188
:101AE0000F900FBE0F901F90189526E8230F0296B7
:101AF000A11DB11DD2CF1F920F920FB60F921124CC
:101B00008F929F92AF92BF92CF92DF92EF92FF920D
:101B10000F931F932F933F934F935F936F937F93F5
:101B20008F939F93AF93BF93CF93DF93EF93FF93E5
:101B3000D6B1DF70C091CB01CD270E94E70220E033
:101B4000AD2FB0E0CC23F1F14C2F50E0C0FF14C01A
:101B500034E0239F80011124FD01022E02C0F5957F
:101B6000E7950A94E2F7E0FF16C0F801E055FE4F52
:101B7000608371838283938355954795C42F2F5F2C
:101B80004091E0015091E1014F5F5F4F5093E101BF
:101B90004093E001D7CFF801E055FE4F808091805F
:101BA000A280B3806B017C01C818D908EA08FB0841
:101BB00046015701F801E053FE4F80829182A282D4
:101BC000B382DACFD093CB01FF91EF91DF91CF9128
:101BD000BF91AF919F918F917F916F915F914F9145
:101BE0003F912F911F910F91FF90EF90DF90CF9039
:101BF000BF90AF909F908F900F900FBE0F901F904F
:101C00001895E7E1F2E01382128288EE93E0A0E0FB
:101C1000B0E084839583A683B78382E391E09183C8
:101C2000808385EC90E09587848784EC90E09787AB
:101C3000868780EC90E0918B808B81EC90E0938B99
:101C4000828B82EC90E0958B848B86EC90E0978B76
:101C5000868B118E128E138E148E67E771E08CE0E6
:101C600093E00E94FA0761E971E086E093E00E9448
:101C7000FA0763EA71E080E093E00E94FA0762E409
:101C800071E08AEF92E00E94FA07E7EDF2E083E06C
:101C900090E09183808389E090E09383828382E166
:101CA00090E095838483E4EBF2E08AE090E0918316
:101CB00080838BE090E09383828383E190E095833F
:101CC00084830895CF93DF9300D000D000D0CDB7A8
:101CD000DEB7789484B5826084BD84B5816084BDAC
:101CE00085B5826085BD85B5816085BD80916E00BA
:101CF000816080936E0010928100809181008260EB
:101D00008093810080918100816080938100809127
:101D100080008160809380008091B1008460809316
:101D2000B1008091B00081608093B00080917A0012
:101D3000846080937A0080917A00826080937A0038
:101D400080917A00816080937A0080917A00806827
:101D500080937A001092C10080918100887F816019
:101D6000809381008091B100887F81608093B10071
:101D700086E2282E81E0382E61E0D1018D911D018F
:101D80000E943C02EEE2F1E0E215F305A9F70E94A1
:101D90003F030E944E03E0912702F091280282E067
:101DA0008083E0912302F09124021082E0912502C9
:101DB000F09126028FEC808310922F02E0912B028B
:101DC000F0912C0286E08083E0912902F0912A02B2
:101DD000808180618083E0912902F0912A028081D4
:101DE00088608083E0912902F0912A0280818068D6
:101DF0008083E0912902F0912A0280818F7D808387
:101E00000E94D5051092CB0162E08EE00E943C0258
:101E100062E08FE00E943C0262E080E10E943C02AE
:101E200062E081E10E943C0280916C008F608093AF
:101E30006C00D99A8091680082608093680084EB7E
:101E400092E00E94E40487ED92E00E94E40408EE30
:101E500011E01A82198289819A810E948C13D8011B
:101E60008D938D01E981FA813196FA83E983BF97D9
:101E700091F78091E8019091E901A091EA01B09178
:101E8000EB0185319D4CAB45B74009F46EC085E14F
:101E90009DECABE5B7E08093E8019093E901A09356
:101EA000EA01B093EB0181E08093EC018BE0809339
:101EB000ED018CED95E09093EF018093EE0140ED04
:101EC00057E05093F3014093F20128EE33E0309352
:101ED000F1012093F0019093F5018093F401509368
:101EE000F9014093F8013093F7012093F60122E3C2
:101EF0002093FA0124E62093FB012093FC01209318
:101F0000FD012093FE011092FF0110920002109239
:101F10000102109202021092030210920402109227
:101F20000502109206029093080280930702909394
:101F30000A028093090290930C0280930B02909303
:101F40000E0280930D029093100280930F029093E3
:101F500012028093110290931402809313029093C3
:101F60001602809315020E9407050E94700381E00B
:101F700090E09093D6028093D5029093F9028093DB
:101F8000F80284EB92E00E94FB0387ED92E00E944E
:101F9000FB0362E082E10E943C0262E083E10E9476
:101FA0003C0260E084E10E943C0260E085E10E9426
:101FB0003C021092CD011092CC0184E10E94D50226
:101FC0008115924034F48BE090E09093CD018093A2
:101FD000CC0185E10E94D5028115924034F485E15F
:101FE00090E09093CD018093CC0185E10E94D502D1
:101FF0009A83898384E10E94D50249815A814115DF
:1020000052404CF48115924034F487E190E0909373
:10201000CD018093CC0103E0802E912CA12CB12C1A
:102020008091E2018111BFC28091E0019091E101B4
:10203000892B09F48EC0F8941092E1011092E0010E
:102040008091D0019091D101A091D201B091D301A2
:102050008093080190930901A0930A01B0930B01AA
:102060008091D4019091D501A091D601B091D70172
:1020700080930C0190930D01A0930E01B0930F017A
:102080008091D8019091D901A091DA01B091DB0142
:102090008093100190931101A0931201B09313014A
:1020A0008091DC019091DD01A091DE01B091DF0112
:1020B0008093140190931501A0931601B09317011A
:1020C00078948091140190911501AC014C5E5F4FA2
:1020D0004497E7E0F2E01A821982219131912417A6
:1020E00035071CF4821793076CF029813A812F5F22
:1020F0003F4F3A8329832830310579F74FEF5FEF5F
:102100005A83498364E670E080E090E00E940C030B
:1021100089819A810196C9F51092CF011092CE0162
:10212000EFEFF1E0FA83E98310E000E0A981BA81E2
:102130008D91BA83A983811107C060E0F801EA5D3F
:10214000FE4F80810E940E020F5F1F4F0830110565
:1021500069F78091CC019091CD01009711F48091A5
:10216000ED01873109F404C108F083C08B3009F414
:102170009DC018F0853108F0C8C00E943101882345
:1021800009F44ECF0E94640B4BCF1FEF612E11E07C
:10219000712E730110E000E0E981FA81EA5DFE4FE3
:1021A0006F01D7018D917D0181110AC0E981FA810A
:1021B000E017F10729F461E0D6018C910E940E022C
:1021C0000F5F1F4F0830110561F78091CE0190918C
:1021D000CF01892B09F0BDCF90E080E010E000E056
:1021E000E981FA81EA5DFE4F7F01D3012D913D0126
:1021F000213009F033C0E981FA81E017F10771F568
:10220000D701DC902D2D30E0F901EF5DFE4F849178
:10221000F901E35FFE4FC490F901E750FF4F54907E
:1022200070E060E0552099F081110E94E501E52DF4
:10223000F0E0EE0FFF1FE151FF4FA591B491EC913B
:10224000CE2291E080E009F490E0692F782FB1E090
:102250006B278D2D0E940E0281E090E00F5F1F4FD3
:102260000830110509F0C1CF9093CF018093CE01C2
:1022700070CF803209F4CDC070F48F3109F07DCF7A
:1022800084EB92E00E94FB0387ED92E00E94FB0347
:102290000E944E0372CF893209F4E8C08B3509F0F1
:1022A0006CCF84EB92E00E94FB032AC06091040192
:1022B000709105018091060190910701660F771FCB
:1022C000881F991F009108011091090120910A01AE
:1022D00030910B01600F711F821F931FA5019401A4
:1022E0000E940314BA01A90140930401509305010F
:1022F000609306017093070184EB92E00E940C0446
:1023000087ED92E00E94FB0338CF60910401709149
:1023100005018091060190910701660F771F881FC4
:10232000991F009108011091090120910A01309133
:102330000B01600F711F821F931FA50194010E9462
:10234000031469017A01C0920401D0920501E09260
:102350000601F0920701BA01A90184EB92E00E9404
:102360000C04B701A60187ED92E00E940C0405CF92
:10237000609104017091050180910601909107011F
:10238000660F771F881F991F00910801109109019E
:1023900020910A0130910B01600F711F821F931F62
:1023A000A50194010E940314BA01A90140930401FC
:1023B00050930501609306017093070184EB92E04E
:1023C0000E940C0460910001709101018091020152
:1023D00090910301660F771F881F991F00910C01D0
:1023E00010910D0120910E0130910F01600F711FAE
:1023F000821F931FA50194010E940314BA01A90131
:102400004093000150930101609302017093030116
:10241000AACF84EB92E00E94FB0387ED92E00E943A
:10242000FB03E5E0F0E0FA83E98306E211E061E016
:10243000D8018D918D010E940E0220163106B9F748
:1024400064EF71E080E090E00E940C030E943F0383
:1024500064EF71E080E090E00E940C03E981FA8172
:102460003197FA83E983EF2B01F787CE84EB92E073
:102470000E94FB0387ED92E00E94FB034090DC0189
:102480005090DD016090DE017090DF0162E370E04A
:1024900080E090E00E940C03C12CD12C76011E82BA
:1024A0001D82A30192012951310941095109298352
:1024B0003A834B835C8339E1430E511C611C711CD0
:1024C0008091DC019091DD01A091DE01B091DF01EE
:1024D00029813A814B815C8182179307A407B50754
:1024E00070F08091DC019091DD01A091DE01B0914E
:1024F000DF01481659066A067B0608F041C0809144
:10250000DC019091DD01A091DE01B091DF018C151D
:102510009D05AE05BF05A1F58091DC019091DD011F
:10252000A091DE01B091DF01ED81FE81EE0FFF1F72
:10253000E851FE4F90A3878F64E170E080E090E067
:102540000E940C0361E0ED81FE81EA5DFE4F808117
:102550000E940E0268EE73E080E090E00E940C039F
:102560008D819E8101969E838D83089709F0A8CF67
:102570009BE59093ED010E9407050E943F03FDCD6E
:102580004D815E81415051095E834D83C090DC01D5
:10259000D090DD01E090DE01F090DF0164E170E0B9
:1025A00080E090E0DBCF60911C0170911D01809173
:1025B0001E0190911F01660F771F881F991F2091A0
:1025C000E3013091E401620F731F811D911DA5018C
:1025D00094010E94031469017A01C0921C01D092F7
:1025E0001D01E0921E01F0921F016091180170918F
:1025F000190180911A0190911B01660F771F881FA6
:10260000991F2091E5013091E601620F731F811D32
:10261000911DA50194010E94031429013A014092E1
:1026200018015092190160921A0170921B01B701B2
:10263000A60184EB92E00E940C04B301A20187ED95
:1026400092E00E940C0406E211E01A821982D8017D
:102650008D918D012091E70130E0098002C0359510
:1026600027950A94E2F761E020FF60E00E940E02E5
:10267000E981FA813196FA83E983389741F77DCD74
:102680008AEF92E00E949E0880E093E00E949E08FC
:1026900086E093E00E949E088CE093E00C949E08F4
:1026A0001F93FC0199278827BC01E89411911032EF
:1026B000E9F3193010F01E30C8F31B3251F01D320F
:1026C00049F4689406C00E947713610F711D811D43
:1026D000911D119110531A30B0F33EF490958095EE
:1026E000709561957F4F8F4F9F4F1F910895592F80
:1026F000482F372F262F660F771F881F991F660FC9
:10270000771F881F991F620F731F841F951F660F05
:10271000771F881F991F0895F999FECF92BD81BD3B
:10272000F89A992780B50895262FF999FECF1FBAF8
:1027300092BD81BD20BD0FB6F894FA9AF99A0FBEEA
:1027400001960895052E97FB1EF400940E94B9137C
:1027500057FD07D00E94031407FC03D04EF40C94DD
:10276000B91350954095309521953F4F4F4F5F4F8E
:10277000089590958095709561957F4F8F4F9F4FED
:1027800008950E942514A59F900DB49F900DA49FBD
:10279000800D911D112408952F923F924F925F92C8
:1027A0006F927F928F929F92AF92BF92CF92DF9261
:1027B000EF92FF920F931F93CF93DF93CDB7DEB7C6
:1027C000CA1BDB0B0FB6F894DEBF0FBECDBF09945A
:1027D0002A88398848885F846E847D848C849B84B1
:1027E000AA84B984C884DF80EE80FD800C811B81BF
:1027F000AA81B981CE0FD11D0FB6F894DEBF0FBEEE
:10280000CDBFED010895A1E21A2EAA1BBB1BFD014D
:102810000DC0AA1FBB1FEE1FFF1FA217B307E407BF
:10282000F50720F0A21BB30BE40BF50B661F771F17
:10283000881F991F1A9469F76095709580959095F7
:102840009B01AC01BD01CF010895A29FB001B39FD0
:10285000C001A39F700D811D1124911DB29F700DA9
:10286000811D1124911D0895DB018F939F930E9478
:10287000C113BF91AF91A29F800D911DA39F900D99
:10288000B29F900D112408950E942514B7FF08955A
:10289000821B930B0895EE0FFF1F0590F491E02D1E
:1028A00009940F931F93CF93DF938230910510F417
:1028B00082E090E0E0911403F091150330E020E015
:1028C000B0E0A0E0309799F42115310509F44AC031
:1028D000281B390B24303105D8F58A819B8161157D
:1028E000710589F1FB0193838283FE0111C0408150
:1028F00051810281138148175907E0F048175907A1
:1029000099F4109761F012960C93129713961C93FA
:102910003296CF01DF91CF911F910F9108950093CF
:10292000140310931503F4CF2115310551F042170C
:10293000530738F0A901DB019A01BD01DF01F8015D
:10294000C1CFEF01F9CF9093150380931403CDCF3E
:10295000FE01E20FF31F81939193225031093983D5
:102960002883D7CF2091120330911303232B41F4F6
:1029700020912201309123013093130320931203FD
:1029800020912001309121012115310541F42DB70D
:102990003EB74091240150912501241B350BE09155
:1029A0001203F0911303E217F307A0F42E1B3F0B61
:1029B0002817390778F0AC014E5F5F4F24173507B1
:1029C00048F04E0F5F1F50931303409312038193FF
:1029D00091939FCFF0E0E0E09CCFCF93DF930097FF
:1029E000E9F0FC01329713821282A0911403B09196
:1029F0001503ED0130E020E01097A1F42081318132
:102A0000820F931F20911203309113032817390767
:102A100009F061C0F0931303E0931203DF91CF91AB
:102A20000895EA01CE17DF07E8F54A815B819E0130
:102A300041155105B1F7E901FB83EA8349915991A9
:102A4000C40FD51FEC17FD0761F4808191810296B8
:102A5000840F951FE90199838883828193819B83E9
:102A60008A83F0E0E0E012968D919C911397009795
:102A7000B9F52D913C911197CD010296820F931FCC
:102A800020911203309113032817390739F6309734
:102A900051F51092150310921403B0931303A093F1
:102AA0001203BCCFD383C28340815181840F951F11
:102AB000C817D90761F44E5F5F4F88819981480F2D
:102AC000591F518340838A819B819383828321157F
:102AD000310509F0B0CFF0931503E09314039ECFB6
:102AE000FD01DC01C0CF13821282D7CFB0E0A0E09D
:102AF000ECE7F5E10C94CE138C01009751F4CB0177
:102B00000E9451148C01C801CDB7DEB7E0E10C94EE
:102B1000EA13FC01E60FF71F9C0122503109E2176E
:102B2000F30708F49DC0D901CD91DC911197C61728
:102B3000D70798F0C530D10530F3CE01049786173A
:102B4000970708F3C61BD70B2297C193D1936D93B8
:102B50007C93CF010E94ED14D6CF5B01AC1ABD0A65
:102B60004C018C0E9D1EA0911403B0911503512CA5
:102B7000412CF12CE12C109731F5809112039091AA
:102B800013038815990509F05CC04616570608F02E
:102B900058C08091200190912101009741F48DB798
:102BA0009EB74091240150912501841B950BE81795
:102BB000F90708F055C0F0931303E0931203F901ED
:102BC00071836083A0CF8D919C91119712966C9028
:102BD000129713967C901397A815B90559F56C01B7
:102BE00042E0C40ED11CCA14DB0420F1AC014A1926
:102BF0005B09DA011296159780F062827382518325
:102C00004083D9016D937C93E114F10471F0D701F5
:102C10001396FC93EE93129776CF22968C0F9D1FFE
:102C2000F90191838083F301EFCFF0931503E093D3
:102C3000140369CF4816590608F42C017D01D3010D
:102C40009ACFCB010E9451147C01009749F0AE014C
:102C5000B8010E943316C8010E94ED14870153CFBA
:102C600010E000E050CFFB01DC0102C001900D92AA
:102C700041505040D8F708956817790768F4FB0170
:102C8000DC01E40FF51FA40FB51F02C002900E92E5
:102C900041505040D8F708950C943316FB01DC01E5
:102CA00001900D920020E1F70895FB01DC014150F5
:102CB000504048F001900D920020C9F701C01D92CC
:102CC00041505040E0F70895FB0151915523A9F080
:102CD000BF01DC014D9145174111E1F759F4CD01D8
:102CE0000190002049F04D9140154111C9F3FB01BD
:102CF0004111EFCF81E090E00197089510E0CCE919
:102D0000D0E004C0FE010E944B142196CD39D107BA
:062D1000C9F7F894FFCFA3
:102D1600DC050000DC050000DC050000DC05000029
:102D2600DC050000DC050000DC050000DC05000019
:102D36000000160380000C08070605040D020000BB
:102D460000005D01C700F400C5012501030117015C
:102D56000D0A003C003E00436D64456E7200436DF3
:102D660064566572002900436D6453696D00434FD4
:102D76004E4E454354454400436D644366670043E5
:102D860066673D28002C005661726961746575722C
:102D96002049425434202B205243204164646F6EF4
:102DA6000056657273696F6E20332E312E343420CF
:102DB60042540041756720323820323032300000EC
:00000001FF
